S014000046757365626F785F546573742E7372656335
S113000049C0000057C0000055C0000053C00000A4
S113001051C000004FC000004DC000004BC00000A4
S113002049C00000AAC0000045C0000043C0000051
S113003041C000003FC000003DC000003BC00000C4
S113004071C0000037C0000035C0000033C000009C
S113005031C000002FC000002DC000002BC00000E4
S113006029C0000027C0000025C0000023C00000F4
S113007021C000001FC000001DC000001BC0000004
S113008019C0000017C0000015C0000013C0000014
S113009011C0000011241FBECFEFD0E1DEBFCDBFE1
S11300A021E0A0E0B1E001C01D92A430B207E1F765
S11300B002D077C0A5CF1DD023D02AD078948091C8
S11300C0000190910101A0910201B09103018436D5
S11300D09105A105B10598F3109200011092010158
S11300E0109202011092030195B188E0892785B925
S11300F0E6CF84B1886184B98AB188608AB90895E9
S11301008BE084BD82E080936E0089EF87BD089503
S11301108CE08093B00082E08093700088E280934A
S1130120B30008951F920F920FB60F9211248F936C
S11301309F93AF93BF93F894809100019091010134
S1130140A0910201B09103010196A11DB11D8093FC
S1130150000190930101A0930201B093030195B1B2
S113016080E1892785B97894BF91AF919F918F9150
S11301700F900FBE0F901F9018951F920F920FB6FD
S11301800F9211248F939F93F8949BB188E0892751
S11301908BB978949F918F910F900FBE0F901F9001
S10901A01895F894FFCF4E
S9030000FC
