S018000046757365626F785F4669726D776172652E7372656394
S113000049C0000064C0000062C0000060C000007D
S11300105EC000005CC000005AC0000058C0000070
S113002056C0000054C0000052C0000050C0000080
S1130030F4C100004CC000004AC0000048C00000E9
S11300401AC3000044C0000042C0000040C00000C9
S11300503EC000003CC000003AC0000038C00000B0
S113006036C0000040C0000032C0000030C00000B4
S11300703FC300002CC000002AC0000028C00000BC
S113008026C0000024C0000022C0000020C00000E0
S11300901EC0000011241FBECFEFD0E1DEBFCDBFD4
S11300A011E0A0E0B1E0E0E2F7E000E00BBF02C045
S11300B007900D92A230B107D9F721E0A2E0B1E098
S11300C001C01D92A537B207E1F7E6D127C398CF47
S11300D081E480937C00EAE7F0E08CE8808380810F
S11300E08064808308951F920F920FB60F9211249B
S11300F00BB60F922F933F938F93EF93FF938091BF
S11301000201E82FF0E02091780030917900EE0FA1
S1130110FF1FE85EFE4F318320838F5F80930201CF
S1130120853011F410920201809102018064809361
S11301307C00FF91EF918F913F912F910F900BBE17
S11301400F900FBE0F901F901895883078F0209173
S1130150DD0090E0089730E002C0359527958A9538
S1130160E2F781E020FF0DC080E008952091DC00DB
S113017030E002C0359527958A95E2F781E020FDAD
S113018080E008951092D80040E029C080E1489FA3
S113019090011124822F88608093ED001092EE006C
S11301A01092EF001092F0001092F1001092F20001
S11301B01092F3001092F4001092F5001092F600E1
S11301C01092F70080E008C0982F922B98609093CB
S11301D0ED001092FA008F5F8830B0F34F5F4F301C
S11301E0A8F21092E2008CE08093E30086E380930F
S11301F0E4001092DB00E8EDF0E08081826080830F
S113020008950F931F93CF93DF93EC018B018C819F
S11302108295807F8093ED008C8197DF882371F134
S113022088819981969587959695879596958795D2
S11302308093F30088818295880F807E8093F200FA
S11302401092F10084E08093F0008A819B8196955E
S1130250879596958795969587958093F7008A81DB
S11302608295880F807E8093F6001092F50010929C
S1130270F40088EC8093EF001092EE0020E010C0B0
S11302808C8130E1839FC0011124822B886080938C
S1130290ED00F801E20FF11D8091FA0080832F5FD9
S11302A0283070F3DF91CF911F910F910895CF9370
S11302B0DF93EC0120E010C08C8130E1839FC0010A
S11302C01124822B88608093ED00FB01E20FF11D65
S11302D080818093FA002F5F283070F38C8182959F
S11302E0807F8093ED008C8130DF882321F1EEEE56
S11302F0F0E01082888199819695879596958795E7
S1130300969587958093F30088818295880F807EE7
S11303108093F2001092F1001092F0001092F70016
S11303201092F6001092F5001092F400108288E406
S11303308093EF001082DF91CF910895E9E2F1E01C
S113034080E096E0918380838FEF9FEF9383828395
S11303501482E0E4F1E021E036E0318320839383EA
S1130360828321E02483EBE3F1E02FE931E0318360
S113037020839383828322E02483E7E6F1E02FE362
S113038030E0318320839383828323E02483E4E277
S1130390F1E02FE131E0318320839383828325E0F0
S11303A02483EEE2F1E020E034E0318320832FEF78
S11303B037E03383228346E04483E2E6F1E040E21F
S11303C054E0518340833383228327E02483ECE683
S11303D0F1E020E035E0318320839383828328E0B9
S11303E02483EDE5F1E020E032E031832083938340
S11303F0828389E084830895E1E8F0E080818A6063
S11304008083EFE6F0E080818260808388E690E17B
S1130410909389008093880008951F920F920FB6DD
S11304200F9211242F933F938F939F9380910301F5
S1130430882319F0813099F026C085B1806485B98C
S11304408EB180618EB981E0809303018091710146
S113045090917201909389008093880014C085B1B3
S11304608F7B85B98EB18F7E8EB9209171013091C9
S113047072018CEC90E1821B930B90938900809322
S11304808800109203019F918F913F912F910F90BB
S11304900FBE0F901F901895CF93DF93CDB7DEB7A3
S11304A028970FB6F894DEBF0FBECDBFD7D0CBD000
S11304B0A3DF06D167DE0CDE41DF789410E04091C3
S11304C014015091150160911601709117018091EA
S11304D0100190911101A0911201B09113014817DC
S11304E059076A077B0781F08091140190911501E7
S11304F0A0911601B09117018093100190931101FE
S1130500A0931201B09313018091140190911501ED
S1130510A0911601B091170140910C0150910D0169
S113052060910E0170910F01841B950BA60BB70B04
S11305300A97A105B10590F18091140190911501DC
S1130540A0911601B091170180930C0190930D01B5
S1130550A0930E01B0930F0183B190E08095909524
S113056086FB002700F91295107F13B9BE016F5F57
S11305707F4F8DE591E045DE1F81111F1127111F6B
S1130580E5E5F1E010821182128213821482058360
S113059016821782BF0189E291E089DE80911401FD
S11305A090911501A0911601B09117014091080195
S11305B05091090160910A0170910B01841B950B04
S11305C0A60BB70B84369105A105B10588F080917F
S11305D0140190911501A0911601B0911701809317
S11305E0080190930901A0930A01B0930B013ED036
S11305F08091140190911501A0911601B0911701F9
S11306004091040150910501609106017091070128
S1130610841B950BA60BB70B883C9105A105B1056E
S113062008F44DCF8091140190911501A091160109
S1130630B09117018093040190930501A0930601E2
S1130640B09307013CCF11B887E584B98FE087B92F
S113065080E18AB98DB910BA13BA08958BE084BDCC
S113066089EF87BD82E080936E00089595B184E0A0
S1130670892785B908951F920F920FB60F921124FE
S11306808F939F93AF93BF93809114019091150121
S1130690A0911601B09117010196A11DB11D80937F
S11306A0140190931501A0931601B0931701BF9103
S11306B0AF919F918F910F900FBE0F901F9018953F
S11306C083E3809390008AE18093910082E0809399
S11306D071008091000190910101909399008093A1
S11306E0980081E090E090939B0080939A00089595
S11306F01F920F920FB60F9211248F939F938091A4
S113070073019091740190939B0080939A009F9140
S11307108F910F900FBE0F901F901895F894FFCFF4
S1050720410092
S9030000FC
