S018000046757365626F785F4669726D776172652E7372656394
S113000049C0000064C0000062C0000060C000007D
S11300105EC000005CC000005AC0000058C0000070
S113002056C00000EFC3000052C0000050C00000E2
S11300308EC100004CC000004AC0000048C000004F
S113004079C3000044C0000042C0000040C000006A
S11300503EC000003CC000003AC0000038C00000B0
S113006036C0000040C0000032C0000030C00000B4
S11300702EC000002CC000002AC0000028C00000D0
S113008026C0000024C0000022C0000020C00000E0
S11300901EC0000011241FBECFEFD0E1DEBFCDBFD4
S11300A011E0A0E0B1E0E0EEFBE000E00BBF02C035
S11300B007900D92AC31B107D9F721E0ACE1B1E082
S11300C001C01D92AC33B207E1F756D187C598CF72
S11300D081E480937C00EAE7F0E08CE8808380810F
S11300E08064808308951F920F920FB60F9211249B
S11300F00BB60F922F933F938F93EF93FF938091BF
S11301001C01E82FF0E02091780030917900EE0F87
S1130110FF1FE95CFE4F318320838F5F80931C01B6
S1130120853011F410921C0180911C01806480932D
S11301307C00FF91EF918F913F912F910F900BBE17
S11301400F900FBE0F901F901895E82FF0E0EE0F60
S1130150FF1FE95CFE4F808191810895883078F01B
S11301602091DD0090E0089730E002C03595279596
S11301708A95E2F781E020FF0DC080E00895209188
S1130180DC0030E002C0359527958A95E2F781E0DE
S113019020FD80E008951092D80040E029C080E15D
S11301A0489F90011124822F88608093ED00109263
S11301B0EE001092EF001092F0001092F1001092F5
S11301C0F2001092F3001092F4001092F5001092D5
S11301D0F6001092F70080E008C0982F922B9860E8
S11301E09093ED001092FA008F5F8830B0F34F5F68
S11301F04F30A8F21092E2008CE08093E30086E393
S11302008093E4001092DB00E8EDF0E080818260EE
S1130210808308950F931F93CF93DF93EC018B0199
S11302208C818295807F8093ED008C8197DF882379
S113023071F188819981969587959695879596957C
S113024087958093F30088818295880F807E8093C0
S1130250F2001092F10084E08093F0008A819B8187
S11302609695879596958795969587958093F700AB
S11302708A818295880F807E8093F6001092F50023
S11302801092F40088EC8093EF001092EE0020E0CE
S113029010C08C8130E1839FC0011124822B8860BF
S11302A08093ED00F801E20FF11D8091FA00808344
S11302B02F5F283070F3DF91CF911F910F91089534
S11302C0CF93DF93EC0120E010C08C8130E1839F59
S11302D0C0011124822B88608093ED00FB01E20FA2
S11302E0F11D80818093FA002F5F283070F38C8198
S11302F08295807F8093ED008C8130DF882321F10B
S1130300EEEEF0E010828881998196958795969516
S11303108795969587958093F30088818295880FB9
S1130320807E8093F2001092F1001092F0001092FF
S1130330F7001092F6001092F5001092F40010826B
S113034088E48093EF001082DF91CF9108951F928B
S11303500F920FB60F9211248F939F9380913B01BC
S113036090E090938B0080938A009F918F910F90DF
S11303700FBE0F901F901895CF93DF93CDB7DEB7C4
S1130380C557D1090FB6F894DEBF0FBECDBFC5D196
S1130390BBD101DF9DDE17D280E096E09A8389838A
S11303A01C821B821D8281E096E09F878E878FEFDF
S11303B090E0998B888B21E02A8B2FE934E03C8FE5
S11303C02B8F9E8F8D8F22E02F8F28E0ECE0F1E0C1
S11303D0DE01909601900D922A95E1F72FE533E026
S11303E039A728A79BA78AA723E02CA728E0E4E144
S11303F0F1E0DE019D9601900D922A95E1F72FE13F
S113040034E03EAB2DAB98AF8FAB85E089AF88E08D
S1130410E4E1F1E0DE01DA9601900D928A95E1F7CC
S113042080E094E024969FAF8EAF24978FEF97E0FF
S113043026969FAF8EAF269726E027962FAF279755
S113044020E234E061963FAF2EAF619763969FAF91
S11304508EAF639787E064968FAF649780E095E0F2
S11304606E969FAF8EAF6E978FEF9FEFA0969FAF64
S11304708EAFA09728E0A1962FAFA19723E032E09A
S1130480AB963FAF2EAFAB97AD969FAF8EAFAD9708
S113049089E0AE968FAFAE97789410E080912E01EC
S11304A090912F01A0913001B09131014091290127
S11304B050912A0160912B0170912C016C017D01F6
S11304C0C41AD50AE60AF70AB701A6014A3051054B
S11304D06105710508F4D8C08093290190932A011D
S11304E0A0932B01B0932C018091250190912601BA
S11304F0A0912701B09128010196A11DB11D8093FF
S1130500250190932601A0932701B093280180919F
S1130510210190912201A0912301B091240101961F
S1130520A11DB11D8093210190932201A093230169
S1130530B0932401BE01695B7F4FCE018E5B9F4F58
S113054069DEBE016C5A7F4FCE01815B9F4F62DE34
S1130550BE016F597F4FCE01845A9F4F5BDEBE01AF
S113056062597F4FCE0187599F4F54DEA396FFAC4B
S1130570A397AF960FADAF9728962FAD28972996DE
S11305808FAD299790E0982F8827822B6AE070E03E
S1130590FED27093200160931F018091000190911D
S11305A00101EDD090931E0180931D0180E0CDDD0B
S11305B08E8380E0CADD9F8381E0C7DD888781E088
S11305C0C4DD99871A861B861C861D8620911D0111
S11305D0822F90911E01880F991FAC01440F551F63
S11305E0440F551F840F951F9DA7822F880F982FA6
S11305F0990F990F890F8EA720910001822F909156
S11306000101880F991FAC01440F551F440F551F5A
S1130610840F951F9AAF822F880F982F990F990FE7
S1130620890F8BAF013061F4DD24D394FD100BC02E
S1130630111109C0D1D081E080932D0111E003C0D4
S113064010922D0110E080912D0188A3BE016A5FF4
S11306507F4FCE01019634DEBE016D5E7F4FCE0129
S11306600E962EDEBE01605E7F4FCE014B9628DED5
S1130670BE01635D7F4FCE01889622DEBE01665CBB
S11306807F4FCE01C5961CDE8091250190912601F5
S1130690A0912701B091280184369105A105B105E7
S11306A048F0109225011092260110922701109211
S11306B028013BD08091210190912201A091230136
S11306C0B09124014497A105B10508F4E7CE109236
S11306D0210110922201109223011092240186B16B
S11306E08B8B1C8A80B18CB18D8B9CB180B1892B92
S11306F08E8B1F8A188E198E1A8EBE016D5E7F4FE7
S1130700CE010E96DDDDCACE11B88DE384B917B8DB
S11307108CE08AB91DB810BA08958BE084BD89EFC6
S113072087BD82E080936E00089595B180E18927AA
S113073085B908951F920F920FB60F9211248F93CB
S11307409F93AF93BF9380912E0190912F01A0911D
S11307503001B09131010196A11DB11D80932E018C
S113076090932F01A0933001B0933101BF91AF91C9
S11307709F918F910F900FBE0F901F901895CF925D
S1130780DF92EF92FF92CF93DF93EB01BC0180E005
S113079090E00CD16B017C01BE0180E090E006D1B9
S11307A020E030E048EC52E468D09B01AC01C70182
S11307B0B6018AD1CAD0CB01DF91CF91FF90EF90DF
S11307C0DF90CF900895E0EBF0E080818860808333
S11307D082E080937000089520E030E00EC001961E
S11307E002C080E090E0803B41E09407C0F39BB1FD
S11307F088E089278BB92F5F3F4F211580E13807A7
S113080080F308951F920F920FB60F9211240BB626
S11308100F928F939F93AF93BF93EF93FF93F894AB
S11308209BB188E089278BB9E0913201F0E0EE5F5B
S1130830FE4F80818093B300809133019091340105
S1130840A0913501B09136010196A11DB11D80938F
S1130850330190933401A0933501B0933601789419
S1130860FF91EF91BF91AF919F918F910F900BBE2C
S11308700F900FBE0F901F9018950CD0EBC0E3D0D3
S113088040F0DAD030F021F45F3F19F0CCC05111C0
S113089015C1CFC0F0D098F39923C9F35523B1F310
S11308A0951B550BBB27AA2762177307840738F0DB
S11308B09F5F5F4F220F331F441FAA1FA9F333D03A
S11308C00E2E3AF0E0E830D091505040E695001CEE
S11308D0CAF729D0FE2F27D0660F771F881FBB1FAA
S11308E0261737074807AB07B0E809F0BB0B802D84
S11308F0BF01FF2793585F4F2AF09E3F510568F0D0
S113090092C0DCC05F3FECF3983EDCF386957795AC
S11309106795B795F7959F5FC9F7880F911D9695D1
S1130920879597F90895E1E0660F771F881FBB1F2D
S1130930621773078407BA0720F0621B730B840BDA
S1130940BA0BEE1F88F7E095089504D06894B111AE
S1130950B5C0089598D088F09F5790F0B92F992783
S1130960B751A0F0D1F0660F771F881F991F1AF0B6
S1130970BA95C9F712C0B13081F09FD0B1E00895A3
S11309809CC0672F782F8827B85F39F0B93FCCF324
S1130990869577956795B395D9F73EF490958095AC
S11309A0709561957F4F8F4F9F4F0895E89409C0CC
S11309B097FB3EF490958095709561957F4F8F4F8E
S11309C09F4F9923A9F0F92F96E9BB279395F695A4
S11309D0879577956795B795F111F8CFFAF4BB0F22
S11309E011F460FF1BC06F5F7F4F8F4F9F4F16C086
S11309F0882311F096E911C0772321F09EE8872F10
S1130A00762F05C0662371F096E8862F70E060E0CB
S1130A102AF09A95660F771F881FDAF7880F969544
S1130A20879597F9089597F99F6780E870E060E0EB
S1130A3008959FEF80EC089500240A941616170673
S1130A4018060906089500240A94121613061406BB
S1130A5005060895092E0394000C11F4882352F01E
S1130A60BB0F40F4BF2B11F460FF04C06F5F7F4FD6
S1130A708F4F9F4F089557FD9058440F551F59F0BD
S1130A805F3F71F04795880F97FB991F61F09F3F77
S1130A9079F087950895121613061406551FF2CFA0
S1130AA04695F1DF08C0161617061806991FF1CFF0
S1130AB086957105610508940895E894BB27662717
S1130AC07727CB0197F908950BD0C4CFB5DF28F071
S1130AD0BADF18F0952309F0A6CFABCF1124EECFDF
S1130AE0CADFA0F3959FD1F3950F50E0551F629F85
S1130AF0F001729FBB27F00DB11D639FAA27F00D73
S1130B00B11DAA1F649F6627B00DA11D661F829F99
S1130B102227B00DA11D621F739FB00DA11D621F7E
S1130B20839FA00D611D221F749F3327A00D611D9B
S1130B30231F849F600D211D822F762F6A2F11247D
S1130B409F5750408AF0E1F088234AF0EE0FFF1FD0
S1130B50BB1F661F771F881F91505040A9F79E3F07
S1130B60510570F060CFAACF5F3FECF3983EDCF301
S1130B70869577956795B795F795E7959F5FC1F744
S1130B80FE2B880F911D9695879597F9089597FBED
S1130B90072E16F4009406D077FD08D00BD007FC7E
S1130BA005D03EF4909581959F4F08957095619579
S1130BB07F4F0895AA1BBB1B51E107C0AA1FBB1F8F
S1130BC0A617B70710F0A61BB70B881F991F5A95D5
S1130BD0A9F780959095BC01CD010895F894FFCFB5
S1130BE019000A100A100A100A100A1000FFFFFF69
S10F0BF0FFFFFFFF0000FFFFFFFFFFFFFF
S9030000FC
