S018000046757365626F785F4669726D776172652E7372656394
S113000049C0000064C0000062C0000060C000007D
S11300105EC000005CC000005AC0000058C0000070
S113002056C00000EAC2000052C0000050C00000E8
S113003071C100004CC000004AC0000048C000006C
S1130040ABC2000044C0000042C0000040C0000039
S11300503EC000003CC000003AC0000038C00000B0
S113006036C0000044C0000032C0000030C00000B0
S11300702EC000002CC000002AC0000028C00000D0
S113008026C0000024C0000022C0000020C00000E0
S11300901EC0000011241FBECFEFD0E1DEBFCDBFD4
S11300A011E0A0E0B1E0E0EDF6E000E00BBF02C03B
S11300B007900D92A230B107D9F721E0A2E0B1E098
S11300C001C01D92A632B207E1F7B8D1FFC298CFA2
S11300D080E480937C00EAE7F0E08CE88083808110
S11300E080648083089588EC80937A0008951F9239
S11300F00F920FB60F9211240BB60F922F933F93CA
S11301004F935F936F937F938F939F93AF93BF931B
S1130110EF93FF9380910201E82FF0E020917800A3
S113012030917900EE0FFF1FEE5DFE4F3183208387
S11301308F5F80930201823011F41092020180914A
S11301400201806480937C00CEDFFF91EF91BF9128
S1130150AF919F918F917F916F915F914F913F915B
S11301602F910F900BBE0F900FBE0F901F901895FC
S1130170E82FF0E0EE0FFF1FEE5DFE4F80819181CE
S11301800895883078F02091DD0090E0089730E001
S113019002C0359527958A95E2F781E020FF0DC0CE
S11301A080E008952091DC0030E002C03595279569
S11301B08A95E2F781E020FD80E008951092D8004E
S11301C040E029C080E1489F90011124822F88607B
S11301D08093ED001092EE001092EF001092F00068
S11301E01092F1001092F2001092F3001092F400B9
S11301F01092F5001092F6001092F70080E008C00B
S1130200982F922B98609093ED001092FA008F5FD4
S11302108830B0F34F5F4F30A8F282E08093E20061
S11302208CE08093E30087E38093E4001092DB008A
S1130230E8EDF0E08081826080830895CF93DF93BE
S1130240EC0120E010C08A8130E1839FC0011124B9
S1130250822B88608093ED00FB01E20FF11D808109
S11302608093FA002F5F283070F38A818295807F13
S11302708093ED008A8185DF882309F1EEEEF0E0BA
S1130280108288818695869586958093F30088816F
S113029020E2829FC00111248093F2001092F100A9
S11302A01092F0001092F7001092F6001092F500F0
S11302B01092F400108288E48093EF001082DF91A2
S11302C0CF910895853608F084E6853048F02FE311
S11302D0829FC001112464E670E0D1D160930001D3
S11302E0089584B1806484B983E6809380008AE1B0
S11302F08093810082E080936F008FE390E090937D
S113030089008093880088E190E090938B0080932B
S11303108A0008951F920F920FB60F9211248F93A3
S11303209F9395B188E0892785B98091000190E079
S113033090938B0080938A009F918F910F900FBEB2
S11303400F901F90189540B1842F817080930E01F7
S113035040B1427050E05595479540930D0120B14E
S1130360247030E0359527953595279520930C0119
S113037060B1687070E0759567957595679575952A
S1130380679560930B019CB1917090930A016CB1D5
S1130390627070E075956795609309016CB1647043
S11303A070E07595679575956795609308016CB1D4
S11303B0687070E0759567957595679575956795FF
S11303C0609307016CB1607170E0759567957595E0
S11303D067957595679575956795609306016CB1FA
S11303E0607270E0759567957595679575956795D5
S11303F07595679575956795609305016CB1607403
S113040070E0062E672F000C661F770B000C661F2A
S1130410771F609304019CB1991F9927991F9093AA
S1130420030150E0440F551F30E0220F331F220F09
S1130430331F482B842F822B90E00895CF93DF93B2
S1130440CDB7DEB72B970FB6F894DEBF0FBECDBF86
S1130450B5DE79DF7CD08DD03BDEC3D042DF78942B
S113046019821A821B828091170190911801A09120
S11304701901B0911A014091130150911401609136
S11304801501709116018C019D01041B150B260B9F
S1130490370B0A3011052105310578F180931301DA
S11304A090931401A0931501B093160180910F014C
S11304B090911001A0911101B09112010196A11D1A
S11304C0B11D80930F0190931001A0931101B0937B
S11304D0120139DF8C8337DF9D83A3D08E8380E0C4
S11304E047DE8F8381E044DE88871A861B86BE013F
S11304F06C5F7F4FCE010196A1DE80910F01909138
S11305001001A0911101B091120184369105A10549
S1130510B10508F4A8CF10920F01109210011092A7
S113052011011092120133D005E010E00CC085EAED
S11305309EE00197F1F700C0000060910001802F58
S1130540C1DE0F5F1F4F0A3511058CF38CCF11B834
S113055084B18D7F84B985B1826085B985B78F7E7A
S113056085BF8DE384B917B88CE68AB91DB810BA73
S1130570089584B5886084BD84B5836084BDEEE647
S1130580F0E08081826080838AEF87BD089595B111
S113059080E1892785B908951F920F920FB60F92B3
S11305A011248F939F93AF93BF93809117019091E0
S11305B01801A0911901B0911A010196A11DB11D54
S11305C08093170190931801A0931901B0931A0115
S11305D0BF91AF919F918F910F900FBE0F901F907D
S11305E01895E0EBF0E080818C60808382E080935A
S11305F070008AE28093B30008951F920F920FB6A1
S11306000F9211248F939F93F8949BB184E08927D0
S11306108BB978949F918F910F900FBE0F901F907C
S1130620189520B1622F61706093210190B1987088
S1130630292F30E0359527952093200140B140744F
S113064050E0559547955595479540931F0180B1C6
S113065010921E0180B110921D0180B110921C01F4
S113066080B110921B0130E0220F331F842F90E0E1
S1130670880F991F880F991F262B822B089597FBAB
S1130680072E16F4009406D077FD08D00BD007FC93
S113069005D03EF4909581959F4F0895709561958E
S11306A07F4F0895AA1BBB1B51E107C0AA1FBB1FA4
S11306B0A617B70710F0A61BB70B881F991F5A95EA
S11306C0A9F780959095BC01CD010895F894FFCFCA
S10506D0010023
S9030000FC
