S018000046757365626F785F4669726D776172652E7372656394
S113000049C0000057C0000055C0000053C00000A4
S113001051C000004FC000004DC000004BC00000A4
S113002049C0000047C0000045C0000043C00000B4
S113003041C000003FC000003DC000003BC00000C4
S11300405DC1000037C0000035C0000033C00000AF
S113005031C000002FC000002DC000002BC00000E4
S113006029C0000037C0000025C0000023C00000E4
S113007021C000001FC000001DC000001BC0000004
S113008019C0000017C0000015C0000013C0000014
S113009011C0000011241FBECFEFD0E1DEBFCDBFE1
S11300A021E0A0E0B1E001C01D92AF31B207E1F759
S11300B0C0D061C1A5CF80E480937C00EAE7F0E082
S11300C08CE88083808180648083089588EC8093A9
S11300D07A0008951F920F920FB60F9211240BB657
S11300E00F922F933F934F935F936F937F938F93CD
S11300F09F93AF93BF93EF93FF9380910001E82FF9
S1130100F0E02091780030917900EE0FFF1FED5E52
S1130110FE4F318320838F5F80930001823011F47E
S11301201092000180910001806480937C00CEDFF6
S1130130FF91EF91BF91AF919F918F917F916F91BB
S11301405F914F913F912F910F900BBE0F900FBE77
S11301500F901F90189580B1817080930C0180B12D
S1130160827090E09595879580930B0180B184709F
S113017090E0959587959595879580930A0180B130
S1130180887090E095958795959587959595879531
S1130190809309018CB18170809308018CB18270C5
S11301A090E095958795809307018CB1847090E0D9
S11301B09595879595958795809306018CB1887060
S11301C090E09595879595958795959587958093D6
S11301D005018CB1807190E09595879595958795EB
S11301E09595879595958795809304018CB1807238
S11301F090E095958795959587959595879595958F
S1130200879595958795809303018CB1807490E0D0
S1130210082E892F000C881F990B000C881F991F2A
S1130220809302018CB1881F8827881F8093010165
S1130230089591DF4CD054D03EDF7894F0901701AC
S11302400091180110911901D0911A01C0911B015C
S1130250B0911C01F0911D01E0911E012F2D302F52
S1130260412F5D2F6C2F7B2F8F2F9E2FA1E077D0F6
S113027009F090F468D0209317013093180140934B
S1130280190150931A0160931B0170931C01809310
S11302901D0190931E01D2CF19DF80910D01909121
S11302A00E01019690930E0180930D011092170197
S11302B0109218011092190110921A0110921B0148
S11302C010921C0110921D0110921E01B7CF11B89B
S11302D08FE184B98FE787B98CE68AB91DB8089590
S11302E084B5886084BD84B5836084BDEEE6F0E0A7
S11302F080818260808388EC87BD08951F920F926D
S11303000FB60F9211248F939F93AF93BF93809155
S11303100F0190911001A0911101B0911201019669
S1130320A11DB11D80930F0190931001A0931101A1
S1130330B0931201BF91AF919F918F910F900FBE17
S11303400F901F9018950024A7FD00942A0F301DCC
S1130350401D501D601D701D801D901D08950024BA
S1130360A7FD00942A173005400550056005700567
S10D0370800590050895F894FFCF6E
S9030000FC
