S018000046757365626F785F4669726D776172652E7372656394
S113000049C0000064C0000062C0000060C000007D
S11300105EC000005CC000005AC0000058C0000070
S113002056C0000054C0000052C0000050C0000080
S1130030DDC000004CC000004AC0000048C0000001
S1130040D4C1000044C0000042C0000040C0000011
S11300503EC000003CC000003AC0000038C00000B0
S113006036C0000035C0000032C0000030C00000BF
S11300702EC000002CC000002AC0000028C00000D0
S113008026C0000024C0000022C0000020C00000E0
S11300901EC0000011241FBECFEFD0E1DEBFCDBFD4
S11300A011E0A0E0B1E0E0E6F7E000E00BBF02C041
S11300B007900D92A230B107D9F721E0A2E0B1E098
S11300C001C01D92A732B207E1F7BBD047C398CF56
S11300D01F920F920FB60F9211240BB60F922F930B
S11300E03F938F93EF93FF9380910201E82FF0E009
S11300F02091780030917900EE0FFF1FE95EFE4FEA
S1130100318320838F5F80930201853011F4109234
S1130110020180910201806480937C00FF91EF9141
S11301208F913F912F910F900BBE0F900FBE0F90A8
S11301301F901895CF92DF92EF92FF92843691052B
S113014018F460E070E002C063E670E08630910568
S113015010F460E070E09C01265031092E35310521
S113016080F443E6489F9001499F300D1124369551
S1130170279536952795ABE7B4E1E1D2BC01769596
S1130180679580E090E0EAD120E030E048EC52E46A
S113019051D16B017C01609100017091010180E0FB
S11301A090E0DCD19B01AC01C701B60165D2AAD1B4
S11301B0CB01FF90EF90DF90CF90089583E280937E
S11301C080008AE18093810082E080936F008091B7
S11301D0000190910101909389008093880081E04F
S11301E090E090938B0080938A0008951F920F9261
S11301F00FB60F9211248F939F9380911B019091BE
S11302001C0190938B0080938A009F918F910F9093
S11302100FBE0F901F90189590E040E050E00DC085
S113022098B922B3227030E0092E02C0220F331F86
S11302300A94E2F7420F531F9F5F9E3088F3CA016E
S11302400895C6D0BAD0BADF789440911301509182
S11302501401609115017091160180910F01909124
S11302601001A0911101B0911201481759076A07B2
S11302707B0781F08091130190911401A0911501E5
S1130280B091160180930F0190931001A093110176
S1130290B09312018091130190911401A091150162
S11302A0B091160140910B0150910C0160910D0128
S11302B070910E01841B950BA60BB70B0A97A10531
S11302C0B10580F08091130190911401A091150162
S11302D0B091160180930B0190930C01A0930D0132
S11302E0B0930E018091130190911401A091150116
S11302F0B0911601409107015091080160910901E4
S113030070910A01841B950BA60BB70B84369105DB
S1130310A105B105E0F08091130190911401A09121
S11303201501B09116018093070190930801A093E1
S11303300901B0930A0154D08EE190E090931E011C
S113034080931D01F7DE90931C0180931B01809123
S1130350130190911401A0911501B09116014091DF
S11303600301509104016091050170910601841B01
S1130370950BA60BB70B883C9105A105B10508F4B4
S113038064CF8091130190911401A0911501B09153
S113039016018093030190930401A0930501B09387
S11303A006013ADFEFE1F1E0108211828283938348
S11303B0148215821682178248CF11B887E584B952
S11303C08FE087B980E18AB98DB910BA13BA08955C
S11303D08BE084BD89EF87BD82E080936E00089531
S11303E095B184E0892785B908951F920F920FB6BD
S11303F00F9211248F939F93AF93BF938091130116
S113040090911401A0911501B09116010196A11DBE
S1130410B11D8093130190931401A0931501B0931F
S11304201601BF91AF919F918F910F900FBE0F90C6
S11304301F9018950CD0E6C0DED040F0D5D030F037
S113044021F45F3F19F0C7C0511110C1CAC0EBD0ED
S113045098F39923C9F35523B1F3951B550BBB2787
S1130460AA2762177307840738F09F5F5F4F220F34
S1130470331F441FAA1FA9F333D00E2E3AF0E0E82D
S113048030D091505040E695001CCAF729D0FE2F79
S113049027D0660F771F881FBB1F2617370748070B
S11304A0AB07B0E809F0BB0B802DBF01FF279358C1
S11304B05F4F2AF09E3F510568F08DC0D7C05F3F63
S11304C0ECF3983EDCF3869577956795B795F795A9
S11304D09F5FC9F7880F911D9695879597F90895A1
S11304E0E1E0660F771F881FBB1F6217730784073D
S11304F0BA0720F0621B730B840BBA0BEE1F88F74C
S1130500E095089598D088F09F5790F0B92F9927D7
S1130510B751A0F0D1F0660F771F881F991F1AF00A
S1130520BA95C9F712C0B13081F09FD0B1E00895F7
S11305309CC0672F782F8827B85F39F0B93FCCF378
S1130540869577956795B395D9F73EF49095809500
S1130550709561957F4F8F4F9F4F0895E89409C020
S113056097FB3EF490958095709561957F4F8F4FE2
S11305709F4F9923A9F0F92F96E9BB279395F695F8
S1130580879577956795B795F111F8CFFAF4BB0F76
S113059011F460FF1BC06F5F7F4F8F4F9F4F16C0DA
S11305A0882311F096E911C0772321F09EE8872F64
S11305B0762F05C0662371F096E8862F70E060E020
S11305C02AF09A95660F771F881FDAF7880F969599
S11305D0879597F9089597F99F6780E870E060E040
S11305E008959FEF80EC089500240A9416161706C8
S11305F018060906089500240A9412161306140610
S113060005060895092E0394000C11F4882352F072
S1130610BB0F40F4BF2B11F460FF04C06F5F7F4F2A
S11306208F4F9F4F089557FD9058440F551F59F011
S11306305F3F71F04795880F97FB991F61F09F3FCB
S113064079F087950895121613061406551FF2CFF4
S11306504695F1DF08C0161617061806991FF1CF44
S113066086957105610508940895E894BB2766276B
S11306707727CB0197F908950BD0C4CFB5DF28F0C5
S1130680BADF18F0952309F0A6CFABCF1124EECF33
S1130690CADFA0F3959FD1F3950F50E0551F629FD9
S11306A0F001729FBB27F00DB11D639FAA27F00DC7
S11306B0B11DAA1F649F6627B00DA11D661F829FEE
S11306C02227B00DA11D621F739FB00DA11D621FD3
S11306D0839FA00D611D221F749F3327A00D611DF0
S11306E0231F849F600D211D822F762F6A2F1124D2
S11306F09F5750408AF0E1F088234AF0EE0FFF1F25
S1130700BB1F661F771F881F91505040A9F79E3F5B
S1130710510570F060CFAACF5F3FECF3983EDCF355
S1130720869577956795B795F795E7959F5FC1F798
S1130730FE2B880F911D9695879597F90895A29F92
S1130740B001B39FC001A39F700D811D1124911DA1
S1130750B29F700D811D1124911D0895F894FFCF4F
S1050760410052
S9030000FC
