S018000046757365626F785F4669726D776172652E7372656394
S113000049C0000064C0000062C0000060C000007D
S11300105EC000005CC000005AC0000058C0000070
S113002056C0000054C0000052C0000050C0000080
S1130030DCC000004CC000004AC0000048C0000002
S1130040F6C1000044C0000042C0000040C00000EF
S11300503EC000003CC000003AC0000038C00000B0
S113006036C0000040C0000032C0000030C00000B4
S11300702EC200002CC000002AC0000028C00000CE
S113008026C0000024C0000022C0000020C00000E0
S11300901EC0000011241FBECFEFD0E1DEBFCDBFD4
S11300A011E0A0E0B1E0E8E3F7E000E00BBF02C03C
S11300B007900D92A430B107D9F721E0A4E0B1E094
S11300C001C01D92A332B207E1F7CED033C398CF5B
S11300D081E480937C00EAE7F0E08CE8808380810F
S11300E08064808308951F920F920FB60F9211249B
S11300F00BB60F922F933F938F93EF93FF938091BF
S11301000401E82FF0E02091780030917900EE0F9F
S1130110FF1FE55EFE4F318320838F5F80930401D0
S1130120853011F41092040180910401806480935D
S11301307C00FF91EF918F913F912F910F900BBE17
S11301400F900FBE0F901F9018951092D80040E0AA
S113015029C080E1489F90011124822F88608093F8
S1130160ED001092EE001092EF001092F000109249
S1130170F1001092F2001092F3001092F400109229
S1130180F5001092F6001092F70080E008C0982F56
S1130190922B98609093ED001092FA008F5F883054
S11301A0B0F34F5F4F30A8F21092E2008CE08093DE
S11301B0E30086E38093E4001092DB00E8EDF0E0D6
S11301C08081826080830895E1E8F0E080818A6024
S11301D08083EFE6F0E080818260808388E690E1AE
S11301E0909389008093880008951F920F920FB610
S11301F00F9211242F933F938F939F938091050126
S1130200882319F0813099F026C085B1806485B9BE
S11302108EB180618EB981E08093050180911F01C8
S113022090912001909389008093880014C085B137
S11302308F7B85B98EB18F7E8EB920911F0130914D
S113024020018CEC90E1821B930B909389008093A6
S11302508800109205019F918F913F912F910F90EB
S11302600FBE0F901F901895D5D0C9D0ADDF17D110
S11302706CDF2EDF01D17894409117015091180161
S11302806091190170911A018091130190911401E8
S1130290A0911501B0911601481759076A077B0709
S11302A019F18091170190911801A0911901B09151
S11302B01A018093130190931401A0931501B09334
S11302C0160188E097E09093200180931F018091AC
S11302D00601833348F083E38093060186EA9EE0B7
S11302E09093200180931F01809117019091180130
S11302F0A0911901B0911A0140910F015091100180
S11303006091110170911201841B950BA60BB70B20
S11303100A97A105B10580F0809117019091180109
S1130320A0911901B0911A0180930F0190931001CB
S1130330A0931101B09312018091170190911801BB
S1130340A0911901B0911A0140910B0150910C0137
S113035060910D0170910E01841B950BA60BB70BD8
S113036084369105A105B105D0F0809117019091D3
S11303701801A0911901B0911A0180930B01909377
S11303800C01A0930D01B0930E014CD0809100019B
S11303909091010175D09093220180932101809165
S11303A0170190911801A0911901B0911A0140917F
S11303B00701509108016091090170910A01841BA1
S11303C0950BA60BB70B883C9105A105B10508F464
S11303D053CF8091170190911801A0911901B09108
S11303E01A018093070190930801A0930901B09327
S11303F00A01809106018F5F809306013DCF11B8F9
S113040087E584B98FE087B980E18AB98DB910BADC
S113041013BA08958BE084BD89EF87BD82E0809391
S11304206E00089595B184E0892785B908951F92D7
S11304300F920FB60F9211248F939F93AF93BF9394
S11304408091170190911801A0911901B0911A019E
S11304500196A11DB11D8093170190931801A093DB
S11304601901B0931A01BF91AF919F918F910F9091
S11304700FBE0F901F9018958BB180618BB90895B2
S1130480609102017091030180E090E062D02AE95A
S113049039E949E15FE3EBD030D0CB01089583E340
S11304A0809390008AE18093910082E080937100B0
S11304B08091020190910301909399008093980098
S11304C081E090E090939B0080939A0008951F929E
S11304D00F920FB60F9211248F939F938091210155
S11304E09091220190939B0080939A009F918F9109
S11304F00F900FBE0F901F90189598D088F09F57BB
S113050090F0B92F9927B751A0F0D1F0660F771F5B
S1130510881F991F1AF0BA95C9F712C0B13081F03B
S11305209FD0B1E008959CC0672F782F8827B85FCB
S113053039F0B93FCCF3869577956795B395D9F79C
S11305403EF490958095709561957F4F8F4F9F4FA6
S11305500895E89409C097FB3EF4909580957095B2
S113056061957F4F8F4F9F4F9923A9F0F92F96E9FB
S1130570BB279395F695879577956795B795F11170
S1130580F8CFFAF4BB0F11F460FF1BC06F5F7F4F0D
S11305908F4F9F4F16C0882311F096E911C077231F
S11305A021F09EE8872F762F05C0662371F096E828
S11305B0862F70E060E02AF09A95660F771F881FF7
S11305C0DAF7880F9695879597F9089597F99F67B5
S11305D080E870E060E008959FEF80EC08950024C7
S11305E00A941616170618060906089500240A9494
S11305F012161306140605060895092E0394000C1A
S113060011F4882352F0BB0F40F4BF2B11F460FFA8
S113061004C06F5F7F4F8F4F9F4F089557FD9058D1
S1130620440F551F59F05F3F71F04795880F97FBB2
S1130630991F61F09F3F79F087950895121613066C
S11306401406551FF2CF4695F1DF08C0161617069B
S11306501806991FF1CF86957105610508940895D0
S1130660E894BB2766277727CB0197F908950BD029
S1130670C4CFB5DF28F0BADF18F0952309F0A6CF70
S1130680ABCF1124EECFCADFA0F3959FD1F3950F22
S113069050E0551F629FF001729FBB27F00DB11D02
S11306A0639FAA27F00DB11DAA1F649F6627B00D92
S11306B0A11D661F829F2227B00DA11D621F739F7B
S11306C0B00DA11D621F839FA00D611D221F749F89
S11306D03327A00D611D231F849F600D211D822FD0
S11306E0762F6A2F11249F5750408AF0E1F0882317
S11306F04AF0EE0FFF1FBB1F661F771F881F915024
S11307005040A9F79E3F510570F060CFAACF5F3FDC
S1130710ECF3983EDCF3869577956795B795F79556
S1130720E7959F5FC1F7FE2B880F911D96958795DE
S10B073097F90895F894FFCF36
S10707381E0041005A
S9030000FC
