S018000046757365626F785F4669726D776172652E7372656394
S113000049C0000057C0000055C0000053C00000A4
S113001051C000004FC000004DC000004BC00000A4
S113002049C0000047C0000045C0000043C00000B4
S113003041C000003FC000003DC000003BC00000C4
S113004039C0000037C0000035C0000033C00000D4
S113005031C000002FC000002DC000002BC00000E4
S113006029C0000037C0000025C0000023C00000E4
S113007021C000001FC000001DC000001BC0000004
S113008019C0000017C0000015C0000013C0000014
S113009011C0000011241FBECFEFD0E1DEBFCDBFE1
S11300A021E0A0E0B1E001C01D92AF30B207E1F75A
S11300B052D0A5C0A5CF80E480937C00EAE7F0E0AD
S11300C08CE88083808180648083089588EC8093A9
S11300D07A0008951F920F920FB60F9211240BB657
S11300E00F922F933F934F935F936F937F938F93CD
S11300F09F93AF93BF93EF93FF9380910001E82FF9
S1130100F0E02091780030917900EE0FFF1FED5F51
S1130110FE4F318320838F5F80930001823011F47E
S11301201092000180910001806480937C00CEDFF6
S1130130FF91EF91BF91AF919F918F917F916F91BB
S11301405F914F913F912F910F900BBE0F900FBE77
S11301500F901F9018957894AEDF2091070130918D
S113016008014091090150910A0160910B017091BD
S11301700C0180910D0190910E01A1E034D02093E7
S11301800701309308014093090150930A016093D9
S11301900B0170930C0180930D0190930E012F3F7E
S11301A03F4F4F4F5F4F6105710581059105A9F2DE
S11301B0A0F2109207011092080110920901109206
S11301C00A0110920B0110920C0110920D01109271
S11301D00E01809101019091020101969093020118
S11301E080930101BACF0024A7FD00942A0F301D8B
S11301F0401D501D601D701D801D901D0895F894B4
S1050200FFCF2A
S9030000FC
