S018000046757365626F785F4669726D776172652E7372656394
S113000049C0000064C0000062C0000060C000007D
S11300105EC000005CC000005AC0000058C0000070
S113002056C00000A6C3000052C0000050C000002B
S1130030BAC100004CC000004AC0000048C0000023
S113004062C3000044C0000042C0000040C0000081
S11300503EC000003CC000003AC0000038C00000B0
S113006036C0000044C0000032C0000030C00000B0
S11300702EC000002CC000002AC0000028C00000D0
S113008026C0000024C0000022C0000020C00000E0
S11300901EC0000011241FBECFEFD0E1DEBFCDBFD4
S11300A011E0A0E0B1E0E8EEF7E000E00BBF02C031
S11300B007900D92AA30B107D9F721E0AAE0B1E088
S11300C001C01D92AB32B207E1F782D18BC398CF46
S11300D080E480937C00EAE7F0E08CE88083808110
S11300E080648083089588EC80937A0008951F9239
S11300F00F920FB60F9211240BB60F922F933F93CA
S11301004F935F936F937F938F939F93AF93BF931B
S1130110EF93FF9380910A01E82FF0E0209178009B
S113012030917900EE0FFF1FEA5DFE4F318320838B
S11301308F5F80930A01823011F410920A0180913A
S11301400A01806480937C00CEDFFF91EF91BF9120
S1130150AF919F918F917F916F915F914F913F915B
S11301602F910F900BBE0F900FBE0F901F901895FC
S1130170E82FF0E0EE0FFF1FEA5DFE4F80819181D2
S11301800895883078F02091DD0090E0089730E001
S113019002C0359527958A95E2F781E020FF0DC0CE
S11301A080E008952091DC0030E002C03595279569
S11301B08A95E2F781E020FD80E008951092D8004E
S11301C040E029C080E1489F90011124822F88607B
S11301D08093ED001092EE001092EF001092F00068
S11301E01092F1001092F2001092F3001092F400B9
S11301F01092F5001092F6001092F70080E008C00B
S1130200982F922B98609093ED001092FA008F5FD4
S11302108830B0F34F5F4F30A8F21092E2008CE0C8
S11302208093E30086E38093E4001092DB00E8ED22
S1130230F0E080818260808308950F931F93CF93B1
S1130240DF93EC018B018C818295807F8093ED009C
S11302508C8197DF882371F18881998196958795A0
S113026096958795969587958093F30088818295D6
S1130270880F807E8093F2001092F10084E08093D6
S1130280F0008A819B81969587959695879596959A
S113029087958093F7008A818295880F807E80936A
S11302A0F6001092F5001092F40088EC8093EF00B1
S11302B01092EE0020E010C08C8130E1839FC001D9
S11302C01124822B88608093ED00F801E20FF11D68
S11302D08091FA0080832F5F283070F3DF91CF91F3
S11302E01F910F910895CF93DF93EC0120E010C08C
S11302F08C8130E1839FC0011124822B886080931C
S1130300ED00FB01E20FF11D80818093FA002F5F65
S1130310283070F38C818295807F8093ED008C81EE
S113032030DF882321F1EEEEF0E01082888199819C
S11303309695879596958795969587958093F300DE
S113034088818295880F807E8093F2001092F1005C
S11303501092F0001092F7001092F6001092F5003F
S11303601092F400108288E48093EF001082DF91F1
S1130370CF91089584B1806484B983E6809380002A
S11303808AE18093810082E080936F008FE390E0A4
S113039090938900809388008AE090E090938B008A
S11303A080938A0008951F920F920FB60F92112422
S11303B08F939F9380912A0190E090938B00809378
S11303C08A009F918F910F900FBE0F901F901895E8
S11303D0CF93DF93CDB7DEB7C154D1090FB6F894EC
S11303E0DEBF0FBECDBF7CD172D1E8DE71DEB8D1E5
S11303F0C1DF83ED90E30197F1F700C000001C8298
S11304001B8281E096E09A83898382E08D8380E079
S113041094E09C8F8B8F8FEF97E09E8F8D8F23E0DE
S11304202F8F20E234E039A728A79BA78AA785E06D
S11304308CA780E095E09EAB8DAB8FEF9FEF98AFDC
S11304408FAB8BE089AF789413C0883E9340A105AD
S1130450B10519F481E080930B0180910B018111A6
S113046003C094E190932A01813011F410922A017F
S113047080911C0190911D01A0911E01B0911F015A
S1130480803D17E09107A105B105F8F280911C01A8
S113049090911D01A0911E01B0911F01409118017E
S11304A05091190160911A0170911B018C019D01F9
S11304B0041B150B260B370B0B30110521053105D9
S11304C008F4C2C08093180190931901A0931A01F3
S11304D0B0931B018091140190911501A091160114
S11304E0B09117010196A11DB11D80931401909341
S11304F01501A0931601B0931701809110019091FA
S11305001101A0911201B09113010196A11DB11D19
S11305108093100190931101A0931201B0931301E1
S113052080910C0190910D01A0910E01B0910F01E9
S11305300196A11DB11D80930C0190930D01A09310
S11305400E01B0930F012CB180B190E0982F882751
S11305509F70822B8F3F9F4011F4FAD001C0FCD0D2
S113056080E006DE8E8380E003DE9F8381E000DE90
S1130570888781E0FDDD99871A861B861C861D8687
S1130580BE016A5F7F4FCE010196ADDEBE01635DA1
S11305907F4FCE01889651DEBE01605E7F4FCE0153
S11305A04B964BDEBE01665C7F4FCE01C59645DEA1
S11305B02CB180B190E0982F88279F70822B8F3FB9
S11305C09F4028F4E0EBF0E0808184608083809198
S11305D0220190912301A0912401B0912501883D2D
S11305E09945A105B105A0F4809121018F5F809305
S11305F02101853039F410922101809120018F5F0F
S113060080932001809120018A3011F410922001FE
S11306108091220190912301A0912401B0912501A0
S1130620883D9945A105B10578F0E0EBF0E08081C3
S11306308B7F808310922201109223011092240157
S113064010922501109220018091140190911501BE
S1130650A0911601B091170184369105A105B10549
S113066060F010921401109215011092160110926C
S1130670170144D08FE080932A018091100190915A
S11306801101A0911201B09113014497A105B10584
S113069008F4FCCE10921001109211011092120174
S11306A01092130186B18B8B1C8A80B18CB18D8B17
S11306B09CB180B1892B8E8B1F8A188E198E1A8E4D
S11306C0BE016D5E7F4FCE010E960DDEDFCE11B8FA
S11306D08DE384B917B88CE28AB91DB810BA0895AD
S11306E084B5886084BD84B5836084BDEEE6F0E0A3
S11306F08081826080838CE787BD089595B180E115
S1130700892785B908951F920F920FB60F9211246D
S11307108F939F93AF93BF9380911C0190911D0180
S1130720A0911E01B0911F010196A11DB11D8093DE
S11307301C0190931D01A0931E01B0931F01BF9152
S1130740AF919F918F910F900FBE0F901F901895AE
S113075085B1877F85B9089585B1886085B9089585
S1130760E0EBF0E080818860808382E08093700019
S113077008951F920F920FB60F9211240BB60F9289
S11307808F939F93AF93BF93EF93FF939BB184E0B9
S113079089278BB9E0912001F0E0E050FF4F808180
S11307A08093B3008091220190912301A0912401B0
S11307B0B09125010196A11DB11D80932201909352
S11307C02301A0932401B0932501FF91EF91BF91E0
S11307D0AF919F918F910F900BBE0F900FBE0F9012
S10B07E01F901895F894FFCF57
S10D07E80A100A100A100A100A1081
S9030000FC
