S018000046757365626F785F4669726D776172652E7372656394
S113000049C0000065C0000063C0000061C000007A
S11300105FC000005DC000005BC0000059C000006C
S113002057C0000055C0000053C0000051C000007C
S11300309FC300004DC000004BC0000049C0000039
S113004098C7000045C0000043C0000041C0000044
S11300503FC000003DC000003BC0000039C00000AC
S113006037C0000063C0000033C0000031C000008E
S11300700C9499082DC000002BC0000029C000007A
S113008027C0000025C0000023C0000021C00000DC
S11300901FC0000011241FBECFEFD0E1DEBFCDBFD3
S11300A011E0A0E0B1E0EEEBF5E100E00BBF02C02F
S11300B007900D92AC31B107D9F721E0ACE1B1E082
S11300C001C01D92AB3BB207E1F748D40C94DD0AA2
S11300D097CFCF93DF93CDB7DEB78CE790E021E4E1
S11300E0FC0120838AE790E02CE8FC0120838AE766
S11300F090E02AE730E0F90120812064FC012083AC
S11301000000DF91CF910895CF93DF93CDB7DEB791
S11301108AE790E02DECFC01208383E590E022E067
S1130120FC0120830000DF91CF9108951F920F926C
S113013000905F000F92112400905B000F922F93A8
S11301403F938F939F93EF93FF93CF93DF93CDB719
S1130150DEB780911C01882F90E028E730E0F90198
S113016020813181880F991F8C5B9E4FFC01318364
S1130170208380911C018F5F80931C0180911C015E
S1130180853011F410921C018CE790E020911C0141
S11301902064FC0120830000DF91CF91FF91EF9157
S11301A09F918F913F912F910F9000925B000F9040
S11301B000925F000F901F901895CF93DF931F92CA
S11301C0CDB7DEB789838981882F90E0880F991F86
S11301D08C5B9E4FFC01808191810F90DF91CF91C8
S11301E00895CF93DF9300D0CDB7DEB78A83198209
S11301F08A818830C0F08DED90E0FC018081882FE9
S113020090E02A81222F30E02850310902C09595D0
S113021087952A95E2F78170992721E0892B09F0C7
S113022020E0298315C08CED90E0FC018081882FAB
S113023090E02A81222F30E002C0959587952A9577
S1130240E2F78170992721E0892B09F020E02983C6
S113025089810F900F90DF91CF910895CF93DF9311
S113026000D0CDB7DEB788ED90E0FC011082198292
S113027056C08DEE90E02981222F30E022953295F0
S1130280307F3227207F32272860FC0120838EEEC6
S113029090E0FC0110828FEE90E0FC01108280EF70
S11302A090E0FC01108281EF90E0FC01108282EF6B
S11302B090E0FC01108283EF90E0FC01108284EF57
S11302C090E0FC01108285EF90E0FC01108286EF43
S11302D090E0FC01108287EF90E0FC0110821A820A
S11302E018C08DEE90E02981222F30E022953295BE
S11302F0307F3227207F3227322F2A81232B286018
S1130300FC0120838AEF90E0FC0110828A818F5FD8
S11303108A838A81883028F389818F5F89838981E0
S11303208F3008F4A6CF82EE90E022E0FC01208317
S113033083EE90E02CE0FC01208384EE90E027E340
S1130340FC0120838BED90E0FC01108288ED90E0AD
S113035028ED30E0F90120812260FC0120830000B7
S11303600F900F90DF91CF910895CF93DF9300D03A
S113037000D01F92CDB7DEB79B838A837D836C83C5
S11303808DEE90E02A813B81F90124812295207F22
S1130390FC0120838A819B81FC01848122DF8823E4
S11303A009F450C083EF90E02A813B81F901208158
S11303B03181369527953695279536952795FC01F5
S11303C0208382EF90E02A813B81F90120813181F1
S11303D02295220F207EFC01208381EF90E0FC0116
S11303E0108280EF90E024E0FC01208387EF90E00E
S11303F02A813B81F90122813381369527953695EF
S1130400279536952795FC01208386EF90E02A8175
S11304103B81F901228133812295220F207EFC0148
S1130420208385EF90E0FC01108284EF90E0FC01D2
S113043010828FEE90E028ECFC0120838EEE90E099
S1130440FC011082198224C08DEE90E02A813B8148
S1130450F9012481222F30E022953295307F322712
S1130460207F3227322F2981232B2860FC0120830F
S11304708981882F90E02C813D81820F931F2AEF80
S113048030E0F9012081FC01208389818F5F898319
S113049089818830C8F200000F900F900F900F9060
S11304A00F90DF91CF910895CF93DF9300D000D0C8
S11304B01F92CDB7DEB79B838A837D836C831982B9
S11304C024C08DEE90E02A813B81F9012481222F02
S11304D030E022953295307F3227207F3227322F29
S11304E02981232B2860FC0120838AEF90E0298155
S11304F0222F30E04C815D81240F351FF9012081CA
S1130500FC01208389818F5F898389818830C8F2C7
S11305108DEE90E02A813B81F90124812295207F90
S1130520FC0120838A819B81FC0184815ADE88231B
S113053009F444C08EEE90E0FC01108283EF90E059
S11305402A813B81F90120813181369527953695A1
S1130550279536952795FC01208382EF90E02A8128
S11305603B81F901208131812295220F207EFC01FB
S1130570208381EF90E0FC01108280EF90E0FC0189
S1130580108287EF90E0FC01108286EF90E0FC017E
S1130590108285EF90E0FC01108284EF90E0FC0172
S11305A010828EEE90E0FC0110828FEE90E028E441
S11305B0FC0120838EEE90E0FC01108200000F907D
S11305C00F900F900F900F90DF91CF910895CF93DC
S11305D0DF9300D01F92CDB7DEB780E096E0909312
S11305E05601809355018FEF9FEF909358018093AC
S11305F057011092590181E096E090937501809320
S113060074018FEF9FEF909377018093760181E0DF
S1130610809378018AE0898384E18A838FE18B83E4
S11306208B81882F90E08068946090937001809310
S11306306F018FEF9FEF909372018093710182E0BD
S1130640809373018B81882F90E0806493609093F2
S1130650A1018093A0018FEF9FEF9093A30180935A
S1130660A20183E08093A4018B81882F90E09460A1
S113067090935101809350018FEF9FEF909353011A
S11306808093520185E08093540180E094E090933C
S11306905B0180935A018FEF97E090935D01809303
S11306A05C0186E080935E0180E294E090939C017B
S11306B080939B018FEF97E090939E0180939D011F
S11306C087E080939F0180E095E09093A60180935A
S11306D0A5018FEF9FEF9093A8018093A70188E075
S11306E08093A90180E092E0909397018093960112
S11306F08FEF9FEF909399018093980189E0809305
S11307009A0180E597E090937A01809379018FEFC5
S11307109FEF90937C0180937B018AE080937D011D
S113072000000F900F900F90DF91CF910895CF9319
S1130730DF93CDB7DEB781E890E021E830E0F9013E
S113074020812A60FC0120838FE690E02FE630E0D0
S1130750F90120812260FC01208388E890E028E6EA
S113076030E1FC01318320830000DF91CF910895B3
S11307701F920F9200905F000F92112400905B0073
S11307800F922F933F934F935F936F937F938F9326
S11307909F93EF93FF93CF93DF9300D0CDB7DEB752
S11307A08CEC90E19A83898380911D01882F90E0DD
S11307B0009719F0019701F143C085E290E025E22A
S11307C030E0F90120812064FC0120838EE290E076
S11307D02EE230E0F90120812061FC01208381E0D8
S11307E080931D0188E890E02091AA013091AB012B
S11307F0FC013183208324C085E290E025E230E0CF
S1130800F90120812F7BFC0120838EE290E02EE20F
S113081030E0F90120812F7EFC01208388E890E0FC
S11308202091AA013091AB0149815A81BA01621B1E
S1130830730B9B01FC013183208310921D01000086
S113084000000F900F90DF91CF91FF91EF919F9156
S11308508F917F916F915F914F913F912F910F9065
S113086000925B000F9000925F000F901F9018950C
S1130870CF93DF931F92CDB7DEB7898382E390E0F5
S1130880FC018081882F90E082709927892BB1F038
S11308908981282F30E081E090E002C0880F991F01
S11308A02A95E2F79C0180911E0190911F01822BF1
S11308B0932B90931F0180931E0117C08981282FC9
S11308C030E081E090E002C0880F991F2A95E2F79A
S11308D0809590959C0180911E0190911F01822327
S11308E0932390931F0180931E0180911E01909188
S11308F01F019F7390931F0180931E0180911E011D
S113090090911F010F90DF91CF910895CF93DF93C2
S113091000D01F92CDB7DEB789837B836A831092A0
S113092020018981880F982F990F990F482F490F1B
S11309308981282F30E08A819B8102C09695879512
S11309402A95E2F78170842B809320018091200105
S11309500F900F900F90DF91CF910895EF92FF9237
S11309600F931F93CF93DF93CDB7DEB728970FB6BE
S1130970F894DEBF0FBECDBF91D268D2D8DEB2D319
S11309806DDCA7DB24DE7894209140013091410195
S113099040914201509143018091210190912201A3
S11309A0A0912301B0912401281739074A075B0756
S11309B089F08091400190914101A0914201B09150
S11309C043018093210190932201A0932301B093CA
S11309D024019ADB20914001309141014091420170
S11309E0509143018091250190912601A091270106
S11309F0B091280179018A01E81AF90A0A0B1B0B44
S1130A00D801C7010A97A105B10508F49AC18091DC
S1130A10400190914101A0914201B0914301809322
S1130A20250190932601A0932701B093280184EC1B
S1130A3099E09093AB018093AA0167E671E08AE59F
S1130A4091E093DC6EE771E08BE991E08EDC68E481
S1130A5071E085EA91E089DC6CEA71E086E991E075
S1130A6084DC6FE571E089E791E07FDC80913901F6
S1130A708130E9F480916901282F30E080916A0186
S1130A80882F90E0982F8827822B932B2AE030E040
S1130A90B9016CD5CB019C01809110019091110199
S1130AA0B90125D2909333018093320104C010928E
S1130AB033011092320181E080DB9A83898389813A
S1130AC09A81CC01A0E0B0E0BC01CD015ED4DC0190
S1130AD0CB0120E030E04DE054E4BC01CD0157D31C
S1130AE0DC01CB0120E53DE847E15DE3BC01CD013C
S1130AF0DAD4DC01CB0120E030E040EA51E4BC016F
S1130B00CD0146D3DC01CB0120E030E040E251E4EA
S1130B10BC01CD01C8D4DC01CB01BC01CD0109D499
S1130B20DC01CB019C838B8380E047DB9E838D8338
S1130B308D819E81CC01A0E0B0E0BC01CD0125D423
S1130B40DC01CB0126E636E64CE950E4BC01CD01DC
S1130B50AAD4DC01CB01BC01CD01EBD3DC01CB0178
S1130B6098878F8388E290E028E230E0F9012081C1
S1130B70322F307F20913F012F70232BFC012083E3
S1130B8080913B0190913C0120913A01BC01822F5C
S1130B90BDDE80933D018F8180938E018F81988586
S1130BA0892F992780938F018B81809390018B816A
S1130BB09C81892F99278093910180913E01809394
S1130BC09201109293011092940180913D018093BF
S1130BD095018091320190913301880F991F9C01F6
S1130BE0220F331F220F331F820F931F892F990F58
S1130BF0990B809300018091320190913301880F09
S1130C00982F990F990F890F8093010180911001FA
S1130C1090911101880F991F9C01220F331F220FFD
S1130C20331F820F931F892F992780930801809186
S1130C30100190911101880F982F990F990F890F26
S1130C408093090180913A018F5F80933A018091EA
S1130C503A018F3010F010923A018091B2018695DA
S1130C6086958695882F90E081709927892B81F04D
S1130C7080914901813081F480913901882361F4A4
S1130C80A6D181E08093390181E08093310104C0D1
S1130C90109239011092310180916201813081F505
S1130CA08091340190913501A0913601B0913701C2
S1130CB00B97A105B10520F180913801813061F4D1
S1130CC01092380185E290E025E230E0F9012081BC
S1130CD02E7FFC0120830CC081E08093380185E2E3
S1130CE090E025E230E0F90120812160FC012083BD
S1130CF0109234011092350110923601109237018E
S1130D0080916101813049F485E290E025E230E090
S1130D10F90120812F7BFC0120836EE871E085E5D9
S1130D2091E0C2DB66E871E084E791E0BDDB60E05E
S1130D3071E080EA91E0B8DB68E071E080E591E081
S1130D40B3DB209140013091410140914201509127
S1130D5043018091290190912A01A0912B01B09126
S1130D602C0179018A01E81AF90A0A0B1B0BD80134
S1130D70C70184369105A105B105C8F180914001F0
S1130D8090914101A0914201B091430180932901C6
S1130D9090932A01A0932B01B0932C0196D08091BB
S1130DA0340190913501A0913601B091370101963B
S1130DB0A11DB11D8093340190933501A093360198
S1130DC0B093370180913F0153DD90933C018093B0
S1130DD03B0180913F018F5F80933F0180913F01F0
S1130DE08E3010F010923F012BD180933E01209160
S1130DF04001309141014091420150914301809161
S1130E002D0190912E01A0912F01B0913001790113
S1130E108A01E81AF90A0A0B1B0BD801C701883C9E
S1130E209105A105B10508F4AFCD809140019091E1
S1130E304101A0914201B091430180932D0190930F
S1130E402E01A0932F01B09330019ECDCF93DF9359
S1130E50CDB7DEB781E290E0FC01108284E290E03D
S1130E6027E5FC01208387E290E02FE0FC0120834A
S1130E708AE290E020E1FC0120838DE290E020E111
S1130E80FC01208380E390E0FC01108283E390E086
S1130E90FC0110820000DF91CF910895CF93DF937E
S1130EA0CDB7DEB784E490E02BE0FC01208387E437
S1130EB090E029EFFC0120838EE690E022E0FC0123
S1130EC020830000DF91CF910895CF93DF93CDB7B6
S1130ED0DEB785E290E025E230E0F901308124E0DC
S1130EE02327FC0120830000DF91CF910895CF9246
S1130EF0DF92EF92FF92CF93DF9300D000D0CDB773
S1130F00DEB79A8389837C836B8389819A81CC0140
S1130F10A0E0B0E0BC01CD0138D26B017C018B8133
S1130F209C81CC01A0E0B0E0BC01CD012ED2DC015B
S1130F30CB0120E030E040E251E4BC01CD018CD192
S1130F40DC01CB019C01AD01C701B601ACD2DC01CF
S1130F50CB01BC01CD01E8D1DC01CB010F900F9096
S1130F600F900F90DF91CF91FF90EF90DF90CF9093
S1130F7008951F920F9200905F000F9211248F9397
S1130F809F93AF93BF93CF93DF93CDB7DEB7809199
S1130F90400190914101A0914201B0914301019619
S1130FA0A11DB11D8093400190934101A093420182
S1130FB0B09343010000DF91CF91BF91AF919F9116
S1130FC08F910F9000925F000F901F901895CF9310
S1130FD0DF9300D000D0CDB7DEB78BE290E02BE2F8
S1130FE030E0F90120812061FC0120831A821982FA
S1130FF012C01C821B8205C08B819C8101969C833C
S11310008B838B819C81803B9140B0F389819A8151
S113101001969A83898389819A818115904148F345
S11310208BE290E0FC0180818BE290E0FC01108275
S113103000000F900F900F900F90DF91CF910895C3
S1131040CF93DF93CDB7DEB72B970FB6F894DEBFFF
S11310500FBECDBF198287E0E4E1F1E0DE01159611
S113106001900D928A95E1F78CE290E0FC01808179
S11310708F7E8B831A8229C08A81882F90E09E01FB
S11310802B5F3F4F820F931FFC0180818C838B81E8
S1131090882F90E02C81222F30E002C0959587950F
S11310A02A95E2F781709927892B61F48C81282F86
S11310B030E081E090E002C0880F991F2A95E2F7A2
S11310C0898306C08A818F5F8A838A818730A0F2F0
S11310D089812B960FB6F894DEBF0FBECDBFDF918A
S11310E0CF910895CF93DF93CDB7DEB780E990E039
S11310F023E3FC01208381E990E02AE1FC012083C1
S113110081E790E022E0FC01208388E990E02091CF
S1131110120130911301FC01318320838AE990E0AC
S113112021E030E0FC01318320830000DF91CF9186
S113113008951F920F9200905F000F921124009067
S11311405B000F922F933F938F939F93EF93FF93A3
S1131150CF93DF93CDB7DEB78AE990E02091B90150
S11311603091BA01FC01318320830000DF91CF91DB
S1131170FF91EF919F918F913F912F910F9000924A
S11311805B000F9000925F000F901F9018955058CD
S1131190BB27AA270ED04DC13ED130F043D120F059
S11311A031F49F3F11F41EF433C10EF4E095E7FBD4
S11311B029C1E92F4FD180F3BA1762077307840757
S11311C0950718F071F49EF567C10EF4E0950B2EA7
S11311D0BA2FA02D0B01B90190010C01CA01A00185
S11311E01124FF27591B99F0593F50F4503E68F1E0
S11311F01A16F040A22F232F342F4427585FF3CF21
S1131200469537952795A795F0405395C9F77EF4F1
S11312101F16BA0B620B730B840BBAF09150A1F03A
S1131220FF0FBB1F661F771F881FC2F70EC0BA0FC0
S1131230621F731F841F48F4879577956795B79548
S1131240F7959E3F08F0B3CF9395880F08F0992740
S1131250EE0F9795879508950CD0EBC0E3D040F03E
S1131260DAD030F021F45F3F19F0CCC0511115C130
S1131270CFC0F0D098F39923C9F35523B1F3951B4C
S1131280550BBB27AA2762177307840738F09F5FA3
S11312905F4F220F331F441FAA1FA9F333D00E2E12
S11312A03AF0E0E830D091505040E695001CCAF77F
S11312B029D0FE2F27D0660F771F881FBB1F261744
S11312C037074807AB07B0E809F0BB0B802DBF0117
S11312D0FF2793585F4F2AF09E3F510568F092C054
S11312E0DCC05F3FECF3983EDCF386957795679519
S11312F0B795F7959F5FC9F7880F911D96958795C8
S113130097F90895E1E0660F771F881FBB1F6217E6
S113131073078407BA0720F0621B730B840BBA0BA4
S1131320EE1F88F7E095089504D06894B111B5C014
S1131330089598D088F09F5790F0B92F9927B75106
S1131340A0F0D1F0660F771F881F991F1AF0BA9585
S1131350C9F712C0B13081F09FD0B1E008959CC0AC
S1131360672F782F8827B85F39F0B93FCCF386957B
S113137077956795B395D9F73EF4909580957095D8
S113138061957F4F8F4F9F4F0895E89409C097FB55
S11313903EF490958095709561957F4F8F4F9F4F48
S11313A09923A9F0F92F96E9BB279395F69587958C
S11313B077956795B795F111F8CFFAF4BB0F11F44F
S11313C060FF1BC06F5F7F4F8F4F9F4F16C08823F6
S11313D011F096E911C0772321F09EE8872F762F2C
S11313E005C0662371F096E8862F70E060E02AF06D
S11313F09A95660F771F881FDAF7880F9695879559
S113140097F9089597F99F6780E870E060E0089580
S11314109FEF80EC089500240A9416161706180608
S11314200906089500240A941216130614060506E4
S11314300895092E0394000C11F4882352F0BB0F75
S113144040F4BF2B11F460FF04C06F5F7F4F8F4FD8
S11314509F4F089557FD9058440F551F59F05F3F13
S113146071F04795880F97FB991F61F09F3F79F0C2
S113147087950895121613061406551FF2CF469544
S1131480F1DF08C0161617061806991FF1CF8695C6
S11314907105610508940895E894BB2766277727AA
S11314A0CB0197F908950BD0C4CFB5DF28F0BADF8C
S11314B018F0952309F0A6CFABCF1124EECFCADFE5
S11314C0A0F3959FD1F3950F50E0551F629FF00153
S11314D0729FBB27F00DB11D639FAA27F00DB11DAC
S11314E0AA1F649F6627B00DA11D661F829F222735
S11314F0B00DA11D621F739FB00DA11D621F839FBC
S1131500A00D611D221F749F3327A00D611D231F91
S1131510849F600D211D822F762F6A2F11249F57DF
S113152050408AF0E1F088234AF0EE0FFF1FBB1F02
S1131530661F771F881F91505040A9F79E3F5105A1
S113154070F060CFAACF5F3FECF3983EDCF3869552
S113155077956795B795F795E7959F5FC1F7FE2B4C
S1131560880F911D9695879597F9089597FB072EF7
S113157016F4009406D077FD08D00BD007FC05D0F4
S11315803EF4909581959F4F0895709561957F4F96
S11315900895AA1BBB1B51E107C0AA1FBB1FA617B6
S11315A0B70710F0A61BB70B881F991F5A95A9F708
S11115B080959095BC01CD010895F894FFCF6D
S11315BE0000FFFFFFFFFFFF0000FFFFFFFFFFFF25
S10F15CE2C014100030500070201060087
S9030000FC
