S018000046757365626F785F4669726D776172652E7372656394
S113000049C0000065C0000063C0000061C000007A
S11300105FC000005DC000005BC0000059C000006C
S113002057C0000055C0000053C0000051C000007C
S113003090C300004DC000004BC0000049C0000048
S113004069C6000045C0000043C0000041C0000074
S11300503FC000003DC000003BC0000039C00000AC
S113006037C0000063C0000033C0000031C000008E
S1130070DFC600002DC000002BC0000029C0000016
S113008027C0000025C0000023C0000021C00000DC
S11300901FC0000011241FBECFEFD0E1DEBFCDBFD3
S11300A011E0A0E0B1E0E4E9F1E100E00BBF02C03F
S11300B007900D92AC31B107D9F721E0ACE1B1E082
S11300C001C01D92A93BB207E1F7C3D30C94C80841
S11300D097CFCF93DF93CDB7DEB78CE790E021E4E1
S11300E0FC0120838AE790E02CE8FC0120838AE766
S11300F090E02AE730E0F90120812064FC012083AC
S11301000000DF91CF910895CF93DF93CDB7DEB791
S11301108AE790E02DECFC01208383E590E022E067
S1130120FC0120830000DF91CF9108951F920F926C
S113013000905F000F92112400905B000F922F93A8
S11301403F938F939F93EF93FF93CF93DF93CDB719
S1130150DEB780911C01882F90E028E730E0F90198
S113016020813181880F991F835C9E4FFC0131836C
S1130170208380911C018F5F80931C0180911C015E
S1130180853011F410921C018CE790E020911C0141
S11301902064FC0120830000DF91CF91FF91EF9157
S11301A09F918F913F912F910F9000925B000F9040
S11301B000925F000F901F901895CF93DF931F92CA
S11301C0CDB7DEB789838981882F90E0880F991F86
S11301D0835C9E4FFC01808191810F90DF91CF91D0
S11301E00895CF93DF9300D0CDB7DEB78A83198209
S11301F08A818830C0F08DED90E0FC018081882FE9
S113020090E02A81222F30E02850310902C09595D0
S113021087952A95E2F78170992721E0892B09F0C7
S113022020E0298315C08CED90E0FC018081882FAB
S113023090E02A81222F30E002C0959587952A9577
S1130240E2F78170992721E0892B09F020E02983C6
S113025089810F900F90DF91CF910895CF93DF9311
S113026000D0CDB7DEB788ED90E0FC011082198292
S113027056C08DEE90E02981222F30E022953295F0
S1130280307F3227207F32272860FC0120838EEEC6
S113029090E0FC0110828FEE90E0FC01108280EF70
S11302A090E0FC01108281EF90E0FC01108282EF6B
S11302B090E0FC01108283EF90E0FC01108284EF57
S11302C090E0FC01108285EF90E0FC01108286EF43
S11302D090E0FC01108287EF90E0FC0110821A820A
S11302E018C08DEE90E02981222F30E022953295BE
S11302F0307F3227207F3227322F2A81232B286018
S1130300FC0120838AEF90E0FC0110828A818F5FD8
S11303108A838A81883028F389818F5F89838981E0
S11303208F3008F4A6CF82EE90E022E0FC01208317
S113033083EE90E02CE0FC01208384EE90E027E340
S1130340FC0120838BED90E0FC01108288ED90E0AD
S113035028ED30E0F90120812260FC0120830000B7
S11303600F900F90DF91CF910895CF93DF9300D03A
S113037000D01F92CDB7DEB79B838A837D836C83C5
S11303808DEE90E02A813B81F90124812295207F22
S1130390FC0120838A819B81FC01848122DF8823E4
S11303A009F450C083EF90E02A813B81F901208158
S11303B03181369527953695279536952795FC01F5
S11303C0208382EF90E02A813B81F90120813181F1
S11303D02295220F207EFC01208381EF90E0FC0116
S11303E0108280EF90E024E0FC01208387EF90E00E
S11303F02A813B81F90122813381369527953695EF
S1130400279536952795FC01208386EF90E02A8175
S11304103B81F901228133812295220F207EFC0148
S1130420208385EF90E0FC01108284EF90E0FC01D2
S113043010828FEE90E028ECFC0120838EEE90E099
S1130440FC011082198224C08DEE90E02A813B8148
S1130450F9012481222F30E022953295307F322712
S1130460207F3227322F2981232B2860FC0120830F
S11304708981882F90E02C813D81820F931F2AEF80
S113048030E0F9012081FC01208389818F5F898319
S113049089818830C8F200000F900F900F900F9060
S11304A00F90DF91CF910895CF93DF9300D000D0C8
S11304B01F92CDB7DEB79B838A837D836C831982B9
S11304C024C08DEE90E02A813B81F9012481222F02
S11304D030E022953295307F3227207F3227322F29
S11304E02981232B2860FC0120838AEF90E0298155
S11304F0222F30E04C815D81240F351FF9012081CA
S1130500FC01208389818F5F898389818830C8F2C7
S11305108DEE90E02A813B81F90124812295207F90
S1130520FC0120838A819B81FC0184815ADE88231B
S113053009F444C08EEE90E0FC01108283EF90E059
S11305402A813B81F90120813181369527953695A1
S1130550279536952795FC01208382EF90E02A8128
S11305603B81F901208131812295220F207EFC01FB
S1130570208381EF90E0FC01108280EF90E0FC0189
S1130580108287EF90E0FC01108286EF90E0FC017E
S1130590108285EF90E0FC01108284EF90E0FC0172
S11305A010828EEE90E0FC0110828FEE90E028E441
S11305B0FC0120838EEE90E0FC01108200000F907D
S11305C00F900F900F900F90DF91CF910895CF93DC
S11305D0DF9300D01F92CDB7DEB780E096E0909312
S11305E04F0180934E018FEF9FEF909351018093C1
S11305F050011092520181E096E090936E01809335
S11306006D018FEF9FEF9093700180936F0181E0F4
S1130610809371018AE0898384E18A838FE18B83EB
S11306208981882F90E08064936090939F018093E8
S11306309E018FEF9FEF9093A1018093A00182E030
S11306408093A2018A81882F90E0806493609093C4
S11306504A01809349018FEF9FEF90934C0180935F
S11306604B0183E080934D018B81882F90E094604F
S113067090939A01809399018FEF9FEF90939C013F
S113068080939B0184E080939D0180E094E09093AB
S11306905401809353018FEF97E090935601809318
S11306A0550185E08093570180E095E09093A40183
S11306B08093A3018FEF9FEF9093A6018093A501F0
S11306C086E08093A70180E092E09093900180936C
S11306D08F018FEF9FEF909392018093910187E0B8
S11306E08093930180E597E0909373018093720166
S11306F08FEF9FEF909375018093740188E080934E
S1130700760100000F900F900F90DF91CF91089524
S1130710CF93DF93CDB7DEB781E890E021E830E0F6
S1130720F90120812A60FC0120838FE690E02FE606
S113073030E0F90120812260FC01208388E890E008
S113074028E630E1FC01318320830000DF91CF9162
S113075008951F920F9200905F000F921124009051
S11307605B000F922F933F934F935F936F937F930D
S11307708F939F93EF93FF93CF93DF9300D0CDB7E5
S1130780DEB78CEC90E19A83898380911D01882FD8
S113079090E0009719F0019701F143C085E290E0E1
S11307A025E230E0F90120812064FC0120838EE2FF
S11307B090E02EE230E0F90120812061FC012083E9
S11307C081E080931D0188E890E02091A801309198
S11307D0A901FC013183208324C085E290E025E255
S11307E030E0F90120812F7BFC0120838EE290E030
S11307F02EE230E0F90120812F7EFC01208388E87D
S113080090E02091A8013091A90149815A81BA014F
S1130810621B730B9B01FC013183208310921D0129
S1130820000000000F900F90DF91CF91FF91EF91A6
S11308309F918F917F916F915F914F913F912F91F4
S11308400F9000925B000F9000925F000F901F903A
S11308501895EF92FF920F931F93CF93DF9300D0DD
S113086000D000D0CDB7DEB72CD203D251DFB9D23D
S1130870F5DC2FDCACDE78942091390130913A011B
S113088040913B0150913C0180911E0190911F01C8
S1130890A0912001B0912101281739074A075B076D
S11308A089F08091390190913A01A0913B01B09176
S11308B03C0180931E0190931F01A0932001B093EB
S11308C0210122DC2091390130913A0140913B0110
S11308D050913C018091220190912301A091240127
S11308E0B091250179018A01E81AF90A0A0B1B0B58
S11308F0D801C7010A97A105B10508F44AC180913E
S1130900390190913A01A0913B01B0913C0180934F
S1130910220190932301A0932401B093250184EC38
S113092099E09093A9018093A80160E671E083E5C2
S113093091E01BDD61E471E083EA91E016DD6AEA8F
S113094071E08FE891E011DD68E571E082E791E004
S11309500CDD809164018F77898389818A8381E0AA
S11309602CDC9C838B838B819C81CC01A0E0B0E048
S1130970BC01CD011CD3DC01CB0126E436EB4DE8F0
S113098051E4BC01CD0182D2DC01CB0124E23BE085
S113099048E15DE3BC01CD0198D3DC01CB0120E04B
S11309A030E040E251E4BC01CD018FD3DC01CB0146
S11309B0BC01CD01D0D2DC01CB019E838D8380E0CC
S11309C0FCDB8093870180E0F8DB892F99278093F3
S11309D088018D81809389018D819E81892F99273A
S11309E080938A018091380180938B0110928C014D
S11309F010928D0110928E018091310190913201FB
S1130A00880F991F9C01220F331F220F331F820F5F
S1130A10931F892F99278093000180913101909130
S1130A203201880F982F990F990F890F8093010134
S1130A3080912F0190913001880F991F9C01220F02
S1130A40331F220F331F820F931F892F99278093FF
S1130A50080180912F0190913001880F982F990FF0
S1130A60990F890F809309018091180190911901C0
S1130A70880F991F9C01220F331F220F331F820FEF
S1130A80931F892F992780931001809118019091C9
S1130A901901880F982F990F990F890F80931101CD
S1130AA08091B001869586958695882F90E0817017
S1130AB09927892B81F080914201813081F48091C2
S1130AC03801882361F454D181E08093380181E0B6
S1130AD080932E0104C01092380110922E0180914F
S1130AE05B01813081F58091330190913401A091B3
S1130AF03501B09136010B97A105B10520F1809124
S1130B003701813061F41092370185E290E025E2EB
S1130B1030E0F90120812E7FFC0120830CC081E0AC
S1130B208093370185E290E025E230E0F9012081ED
S1130B302160FC0120831092330110923401109241
S1130B4035011092360180915A01813049F485E2D1
S1130B5090E025E230E0F90120812F7BFC01208325
S1130B6067E871E08EE491E09FDC6FE771E08DE669
S1130B7091E09ADC60E071E08EE991E095DC68E058
S1130B8071E089E491E090DC60E171E089E991E051
S1130B908BDC2091390130913A0140913B01509115
S1130BA03C018091260190912701A0912801B091E8
S1130BB0290179018A01E81AF90A0A0B1B0BD801E9
S1130BC0C70184369105A105B10520F18091390151
S1130BD090913A01A0913B01B0913C018093260190
S1130BE090932701A0932801B093290181D080918B
S1130BF0330190913401A0913501B09136010196F1
S1130C00A11DB11D8093330190933401A09335014C
S1130C10B09336012091390130913A0140913B0162
S1130C2050913C0180912A0190912B01A0912C01BB
S1130C30B0912D0179018A01E81AF90A0A0B1B0BFC
S1130C40D801C701883C9105A105B10508F414CE6B
S1130C508091390190913A01A0913B01B0913C01FE
S1130C6080932A0190932B01A0932C01B0932D0122
S1130C7003CECF93DF93CDB7DEB781E290E0FC01E2
S1130C80108284E290E027E5FC01208387E290E073
S1130C902FE0FC0120838AE290E020E1FC01208324
S1130CA08DE290E020E1FC01208380E390E0FC01F0
S1130CB0108283E390E0FC0110820000DF91CF9169
S1130CC00895CF93DF93CDB7DEB784E490E02BE0B3
S1130CD0FC01208387E490E029EFFC0120838EE669
S1130CE090E022E0FC0120830000DF91CF91089581
S1130CF0CF93DF93CDB7DEB785E290E025E230E015
S1130D00F901308124E02327FC0120830000DF91D6
S1130D10CF9108951F920F9200905F000F921124BB
S1130D208F939F93AF93BF93CF93DF93CDB7DEB7EA
S1130D308091390190913A01A0913B01B0913C011D
S1130D400196A11DB11D8093390190933A01A0939E
S1130D503B01B0933C010000DF91CF91BF91AF9173
S1130D609F918F910F9000925F000F901F901895A4
S1130D70CF93DF9300D000D0CDB7DEB78BE290E005
S1130D802BE230E0F90120812061FC0120831A82EA
S1130D90198212C01C821B8205C08B819C81019622
S1130DA09C838B838B819C81803B9140B0F38981B0
S1130DB09A8101969A83898389819A8181159041C8
S1130DC048F38BE290E0FC0180818BE290E0FC012F
S1130DD0108200000F900F900F900F90DF91CF9131
S1130DE00895CF93DF93CDB7DEB780E990E023E396
S1130DF0FC01208381E990E02AE1FC01208381E762
S1130E0090E022E0FC01208388E990E020911A011F
S1130E1030911B01FC01318320838AE990E021E0B9
S1130E2030E0FC01318320830000DF91CF910895ED
S1130E301F920F9200905F000F92112400905B00AC
S1130E400F922F933F938F939F93EF93FF93CF939F
S1130E50DF93CDB7DEB78AE990E02091B7013091F6
S1130E60B801FC01318320830000DF91CF91FF9111
S1130E70EF919F918F913F912F910F9000925B0082
S1130E800F9000925F000F901F9018955058BB2749
S1130E90AA270ED0E0C0D1D030F0D6D020F031F463
S1130EA09F3F11F41EF4C6C00EF4E095E7FBBCC0EE
S1130EB0E92FE2D080F3BA17620773078407950716
S1130EC018F071F49EF5FAC00EF4E0950B2EBA2FCB
S1130ED0A02D0B01B90190010C01CA01A00111243C
S1130EE0FF27591B99F0593F50F4503E68F11A16E8
S1130EF0F040A22F232F342F4427585FF3CF469579
S1130F0037952795A795F0405395C9F77EF41F169A
S1130F10BA0B620B730B840BBAF09150A1F0FF0F64
S1130F20BB1F661F771F881FC2F70EC0BA0F621F50
S1130F30731F841F48F4879577956795B795F79540
S1130F409E3F08F0B3CF9395880F08F09927EE0FD2
S1130F5097958795089598D088F09F5790F0B92F6A
S1130F609927B751A0F0D1F0660F771F881F991FFA
S1130F701AF0BA95C9F712C0B13081F09FD0B1E030
S1130F8008959CC0672F782F8827B85F39F0B93F40
S1130F90CCF3869577956795B395D9F73EF49095FC
S1130FA08095709561957F4F8F4F9F4F0895E8947A
S1130FB009C097FB3EF490958095709561957F4F9D
S1130FC08F4F9F4F9923A9F0F92F96E9BB2793954B
S1130FD0F695879577956795B795F111F8CFFAF45B
S1130FE0BB0F11F460FF1BC06F5F7F4F8F4F9F4F8C
S1130FF016C0882311F096E911C0772321F09EE8EA
S1131000872F762F05C0662371F096E8862F70E04F
S113101060E02AF09A95660F771F881FDAF7880F29
S11310209695879597F9089597F99F6780E870E0FA
S113103060E008959FEF80EC089500240A9416164A
S1131040170618060906089500240A9412161306B2
S1131050140605060895092E0394000C11F4882340
S113106052F0BB0F40F4BF2B11F460FF04C06F5F5C
S11310707F4F8F4F9F4F089557FD9058440F551F32
S113108059F05F3F71F04795880F97FB991F61F006
S11310909F3F79F087950895121613061406551F7D
S11310A0F2CF4695F1DF08C0161617061806991FE9
S11310B0F1CF86957105610508940895E894BB27DE
S11310C066277727CB0197F908950BD0C4CFB5DFF6
S11310D028F0BADF18F0952309F0A6CFABCF11247E
S11310E0EECFCADFA0F3959FD1F3950F50E0551FC3
S11310F0629FF001729FBB27F00DB11D639FAA2769
S1131100F00DB11DAA1F649F6627B00DA11D661FB7
S1131110829F2227B00DA11D621F739FB00DA11DD8
S1131120621F839FA00D611D221F749F3327A00D92
S1131130611D231F849F600D211D822F762F6A2F2E
S113114011249F5750408AF0E1F088234AF0EE0FB3
S1131150FF1FBB1F661F771F881F91505040A9F7C0
S11311609E3F510570F060CFAACF5F3FECF3983EED
S1131170DCF3869577956795B795F795E7959F5F27
S1131180C1F7FE2B880F911D9695879597F90895C1
S1071190F894FFCFFD
S11311940000FFFFFFFFFFFF0000FFFFFFFFFFFF53
S10F11A40000FFFFFFFFFFFF2C014100D3
S9030000FC
