S018000046757365626F785F4669726D776172652E7372656394
S113000049C0000064C0000062C0000060C000007D
S11300105EC000005CC000005AC0000058C0000070
S113002056C000009BC2000052C0000050C0000037
S11300304EC000004CC000004AC0000048C0000090
S11300405CC2000044C0000042C0000040C0000088
S11300503EC000003CC000003AC0000038C00000B0
S113006036C0000044C0000032C0000030C00000B0
S11300702EC000002CC000002AC0000028C00000D0
S113008026C0000024C0000022C0000020C00000E0
S11300901EC0000011241FBECFEFD0E1DEBFCDBFD4
S11300A011E0A0E0B1E0E4EEF5E000E00BBF02C037
S11300B007900D92AE31B107D9F721E0AEE1B1E07E
S11300C001C01D92A034B207E1F777D189C298CF5D
S11300D080E480937C00EAE7F0E08CE88083808110
S11300E080648083089588EC80937A0008951F9239
S11300F00F920FB60F9211240BB60F922F933F93CA
S11301004F935F936F937F938F939F93AF93BF931B
S1130110EF93FF9380911E01E82FF0E02091780087
S113012030917900EE0FFF1FE45CFE4F3183208392
S11301308F5F80931E01823011F410921E01809112
S11301401E01806480937C00CEDFFF91EF91BF910C
S1130150AF919F918F917F916F915F914F913F915B
S11301602F910F900BBE0F900FBE0F901F901895FC
S1130170E82FF0E0EE0FFF1FE45CFE4F80819181D9
S11301800895883078F02091DD0090E0089730E001
S113019002C0359527958A95E2F781E020FF0DC0CE
S11301A080E008952091DC0030E002C03595279569
S11301B08A95E2F781E020FD80E008951092D8004E
S11301C040E029C080E1489F90011124822F88607B
S11301D08093ED001092EE001092EF001092F00068
S11301E01092F1001092F2001092F3001092F400B9
S11301F01092F5001092F6001092F70080E008C00B
S1130200982F922B98609093ED001092FA008F5FD4
S11302108830B0F34F5F4F30A8F282E08093E20061
S11302208CE08093E30087E38093E4001092DB008A
S1130230E8EDF0E08081826080830895CF93DF93BE
S1130240EC0120E010C08A8130E1839FC0011124B9
S1130250822B88608093ED00FB01E20FF11D808109
S11302608093FA002F5F283070F38A818295807F13
S11302708093ED008A8185DF882309F1EEEEF0E0BA
S1130280108288818695869586958093F30088816F
S113029020E2829FC00111248093F2001092F100A9
S11302A01092F0001092F7001092F6001092F500F0
S11302B01092F400108288E48093EF001082DF91A2
S11302C0CF91089540B1842F817080932A0140B169
S11302D0427050E0559547954093290120B1247010
S11302E030E035952795359527952093280160B101
S11302F0687070E0759567957595679575956795C0
S1130300609327019CB19170909326016CB1627047
S113031070E075956795609325016CB1647070E029
S11303207595679575956795609324016CB16870B0
S113033070E0759567957595679575956795609364
S113034023016CB1607170E075956795759567953B
S11303507595679575956795609322016CB1607288
S113036070E075956795759567957595679575951D
S1130370679575956795609321016CB1607470E021
S1130380062E672F000C661F770B000C661F771F65
S1130390609320019CB1991F9927991F90931F0185
S11303A050E0440F551F30E0220F331F220F331F3C
S11303B0482B842F822B90E00895CF93DF93CDB701
S11303C0DEB72B970FB6F894DEBF0FBECDBFF6DEB7
S11303D079DF77D07FD07CDEB5D0789419821A8209
S11303E01B828091000190E0A0E0B0E040912F01D9
S11303F050913001609131017091320148175907D1
S11304006A077B0728F174D010922F0110923001F3
S11304101092310110923201E0913301F0E0EF5F6C
S1130420FE4F80818093B300809134018F5F80936D
S11304303401833339F410923401809133018F5F96
S113044080933301809133018D3111F41092330183
S113045080912F0190913001A0913101B09132012E
S113046040912B0150912C0160912D0170912E012E
S11304708C019D01041B150B260B370B0A3011054B
S11304802105310508F4ADCF80932B0190932C0105
S1130490A0932D01B0932E0115DF8C8313DF9D8370
S11304A071D08E8380E064DE8F8381E061DE888793
S11304B01A861B86BE016C5F7F4FCE010196BEDE9D
S11304C090CF11B88DE384B917B88CE68AB91DB8FA
S11304D010BA089584B5886084BD84B5836084BDF2
S11304E0EEE6F0E08081826080838AEF87BD089524
S11304F095B180E1892785B908951F920F920FB6AF
S11305000F9211248F939F93AF93BF9380912F01E8
S113051090913001A0913101B09132010196A11D59
S1130520B11D80932F0190933001A0933101B093BA
S11305303201BF91AF919F918F910F900FBE0F9099
S11305401F901895E0EBF0E080818C60808382E05E
S1130550809370008AE28093B30008951F920F92F3
S11305600FB60F9211248F939F93F8949BB184E05C
S113057089278BB978949F918F910F900FBE0F901C
S11305801F90189520B1622F617060933B0190B168
S11305909870292F30E03595279520933A0140B182
S11305A0407450E0559547955595479540933901CA
S11305B080B11092380180B11092370180B110924D
S11305C0360180B11092350130E0220F331F842FA1
S11305D090E0880F991F880F991F262B822B08956E
S10705E0F894FFCFB9
S11305E4FFA08E5F5050505F5F5F785F78A0A08E4D
S11105F45F505050505F78A0A0A078787878BF
S9030000FC
