S018000046757365626F785F4669726D776172652E7372656394
S113000049C0000057C0000055C0000053C00000A4
S113001051C000004FC000004DC000004BC00000A4
S113002049C0000047C0000045C0000043C00000B4
S113003041C000003FC000003DC000003BC00000C4
S11300408EC0000037C0000035C0000033C000007F
S113005031C000002FC000002DC000002BC00000E4
S113006029C000002CC0000025C0000023C00000EF
S113007021C000001FC000001DC000001BC0000004
S113008019C0000017C0000015C0000013C0000014
S113009011C0000011241FBECFEFD0E1DEBFCDBFE1
S11300A021E0A0E0B1E001C01D92A530B207E1F764
S11300B047D067C0A5CF88EC80937A0008951F923B
S11300C00F920FB60F9211240BB60F922F933F93FA
S11300D04F935F936F937F938F939F93AF93BF934C
S11300E0EF93FF9380910001E82FF0E020917800D6
S11300F030917900EE0FFF1FEF5FFE4F31832083B5
S11301008F5F80930001823011F41092000180917E
S11301100001806480937C00CEDFFF91EF91BF915A
S1130120AF919F918F917F916F915F914F913F918B
S11301302F910F900BBE0F900FBE0F901F9018952C
S113014084B58B6084BD82E080936E008AE287BDB3
S11301508AB188608AB9789480E090E008951F920B
S11301600F920FB60F9211248F939F939BB188E047
S113017089278BB99F918F910F900FBE0F901F907D
S10901801895F894FFCF6E
S9030000FC
