S018000046757365626F785F4669726D776172652E7372656394
S113000049C0000064C0000062C0000060C000007D
S11300105EC000005CC000005AC0000058C0000070
S113002056C0000054C0000052C0000050C0000080
S113003010C200004CC000004AC0000048C00000CC
S113004016C4000044C0000042C0000040C00000CC
S11300503EC000003CC000003AC0000038C00000B0
S113006036C0000040C0000032C0000030C00000B4
S113007051C400002CC000002AC0000028C00000A9
S113008026C0000024C0000022C0000020C00000E0
S11300901EC0000011241FBECFEFD0E1DEBFCDBFD4
S11300A011E0A0E0B1E0E6EAFCE000E00BBF02C032
S11300B007900D92AC31B107D9F721E0ACE1B1E082
S11300C001C01D92A339B207E1F717D2EAC598CF50
S11300D081E480937C00EAE7F0E08CE8808380810F
S11300E08064808308951F920F920FB60F9211249B
S11300F00BB60F922F933F938F93EF93FF938091BF
S11301001C01E82FF0E02091780030917900EE0F87
S1130110FF1FEA5CFE4F318320838F5F80931C01B5
S1130120853011F410921C0180911C01806480932D
S11301307C00FF91EF918F913F912F910F900BBE17
S11301400F900FBE0F901F901895E82FF0E0EE0F60
S1130150FF1FEA5CFE4F808191810895883078F01A
S11301602091DD0090E0089730E002C03595279596
S11301708A95E2F781E020FF0DC080E00895209188
S1130180DC0030E002C0359527958A95E2F781E0DE
S113019020FD80E008951092D80040E029C080E15D
S11301A0489F90011124822F88608093ED00109263
S11301B0EE001092EF001092F0001092F1001092F5
S11301C0F2001092F3001092F4001092F5001092D5
S11301D0F6001092F70080E008C0982F922B9860E8
S11301E09093ED001092FA008F5F8830B0F34F5F68
S11301F04F30A8F21092E2008CE08093E30086E393
S11302008093E4001092DB00E8EDF0E080818260EE
S1130210808308950F931F93CF93DF93EC018B0199
S11302208C818295807F8093ED008C8197DF882379
S113023071F188819981969587959695879596957C
S113024087958093F30088818295880F807E8093C0
S1130250F2001092F10084E08093F0008A819B8187
S11302609695879596958795969587958093F700AB
S11302708A818295880F807E8093F6001092F50023
S11302801092F40088EC8093EF001092EE0020E0CE
S113029010C08C8130E1839FC0011124822B8860BF
S11302A08093ED00F801E20FF11D8091FA00808344
S11302B02F5F283070F3DF91CF911F910F91089534
S11302C0CF93DF93EC0120E010C08C8130E1839F59
S11302D0C0011124822B88608093ED00FB01E20FA2
S11302E0F11D80818093FA002F5F283070F38C8198
S11302F08295807F8093ED008C8130DF882321F10B
S1130300EEEEF0E010828881998196958795969516
S11303108795969587958093F30088818295880FB9
S1130320807E8093F2001092F1001092F0001092FF
S1130330F7001092F6001092F5001092F40010826B
S113034088E48093EF001082DF91CF910895E7E471
S1130350F1E080E096E0918380838FEF9FEF9383B9
S113036082831482EEE5F1E021E036E031832083DC
S11303709383828321E02483E9E5F1E02FE931E0EE
S1130380318320839383828322E02483E5E8F1E0B0
S11303902FE330E0318320839383828323E024831B
S11303A0E2E4F1E02FE131E031832083938382831F
S11303B025E02483ECE4F1E020E034E03183208381
S11303C02FEF37E03383228346E04483E0E8F1E013
S11303D040E254E0518340833383228327E0248323
S11303E0EAE8F1E020E035E03183208393838283DF
S11303F028E02483EBE7F1E020E032E0318320833E
S11304009383828389E0848308958E3108F48EE196
S11304108B3508F08AE5282F30E02E51310944E16C
S1130420429FC001439F900D11248450974F08951B
S1130430E1E8F0E080818A608083EFE6F0E080818B
S11304408260808388E690E190938900809388009D
S113045008951F920F920FB60F9211242F933F937A
S11304608F939F9380911D01882319F0813099F017
S113047026C085B1806485B98EB180618EB981E072
S113048080931D0180918F01909190019093890038
S11304908093880014C085B18F7B85B98EB18F7E1F
S11304A08EB920918F01309190018CEC90E1821BE8
S11304B0930B909389008093880010921D019F9163
S11304C08F913F912F910F900FBE0F901F90189511
S11304D090E040E050E00DC098B922B3227030E0C3
S11304E0092E02C0220F331F0A94E2F7420F531F52
S11304F09F5F9E3088F3CA010895CF93DF93CDB7F1
S1130500DEB728970FB6F894DEBF0FBECDBF7ED1FD
S113051072D18EDFE7D13FDEDBDD19DF7894F12C79
S11305204091320150913301609134017091350151
S113053080912D0190912E01A0912F01B091300155
S1130540481759076A077B0781F08091320190911F
S11305503301A0913401B091350180932D01909322
S11305602E01A0932F01B09330018091320190911C
S11305703301A0913401B09135014091290150918A
S11305802A0160912B0170912C01841B950BA60B01
S1130590B70B0A97A105B10508F4C8C080913201D0
S11305A090913301A0913401B091350180932901D8
S11305B090932A01A0932B01B0932C0188E097E03B
S11305C09093900180938F0180911E01833348F0B2
S11305D083E380931E0183E218DF9093900180935C
S11305E08F0161E571E08CE491E014DE63E671E073
S11305F080E891E00FDE6AE371E08AE891E00ADEC8
S1130600BE016F5F7F4F8BE791E004DE8091310183
S11306108130A1F4E1E5F1E02081818190E0982F1F
S11306208827822B6AE070E015D38091180190919D
S11306301901F9D09093200180931F0180E085DD9A
S113064003E711E0F801808380E07FDDF801918306
S113065081E07BDDF801828381E077DDF80193831B
S1130660148215821682178220911F01822F909185
S11306702001880F991FAC01440F551F440F551FCB
S1130680840F951FE8E0F1E09083822F880F982F64
S1130690990F990F890F818320911801822F9091CE
S11306A01901880F991FAC01440F551F440F551FA2
S11306B0840F951FE0E0F1E09083822F880F982F3C
S11306C0990F990F890F81838F8183FF0FC08091C8
S11306D03B01813071F4F1100CC0EED080913101F6
S11306E0816080933101FF24F39403C0109231019F
S11306F0F12C809131018093100163E771E087E46C
S113070091E0DEDD6BE671E08EE591E0D9DD60E13C
S113071071E089E591E0D4DD68E071E085E891E07D
S1130720CFDD60E071E082E491E0CADD80913201C6
S113073090913301A0913401B0913501409125018C
S1130740509126016091270170912801841B950B1B
S1130750A60BB70B84369105A105B10588F08091ED
S1130760320190913301A0913401B091350180930D
S1130770250190932601A0932701B09328014ED020
S11307808091320190913301A0913401B0913501EF
S11307904091210150912201609123017091240123
S11307A0841B950BA60BB70B883C9105A105B105DD
S11307B008F4B6CE8091320190913301A0913401B6
S11307C0B09135018093210190932201A0932301DC
S11307D0B09324017DDEEBE6F1E010821182828386
S11307E09383148215821682178280911E018F5F73
S11307F080931E0195CE11B887E584B98FE087B93F
S113080080E18AB98DB910BA13BA08958BE084BD1A
S113081089EF87BD82E080936E00089595B184E0EE
S1130820892785B90895CF92DF92EF92FF92CF93F3
S1130830DF93EB01BC0180E090E01BD16B017C01F4
S1130840BE0180E090E015D120E030E040E251E4C8
S113085077D09B01AC01C701B60199D1D9D0CB01A6
S1130860DF91CF91FF90EF90DF90CF9008951F928A
S11308700F920FB60F9211248F939F93AF93BF9350
S11308808091320190913301A0913401B0913501EE
S11308900196A11DB11D8093320190933301A09361
S11308A03401B0933501BF91AF919F918F910F9017
S11308B00FBE0F901F90189520E030E00EC00196F7
S11308C002C080E090E0803B41E09407C0F39BB11C
S11308D080E189278BB92F5F3F4F211580E13807CD
S11308E080F3089583E3809390008AE180939100DC
S11308F082E08093710080911A0190911B01909382
S113090099008093980081E090E090939B008093FD
S11309109A0008951F920F920FB60F9211248F938D
S11309209F93809191019091920190939B00809369
S11309309A009F918F910F900FBE0F901F90189562
S11309400CD0EBC0E3D040F0DAD030F021F45F3FBC
S113095019F0CCC0511115C1CFC0F0D098F3992330
S1130960C9F35523B1F3951B550BBB27AA2762176F
S11309707307840738F09F5F5F4F220F331F441FB4
S1130980AA1FA9F333D00E2E3AF0E0E830D09150EC
S11309905040E695001CCAF729D0FE2F27D0660FD9
S11309A0771F881FBB1F261737074807AB07B0E818
S11309B009F0BB0B802DBF01FF2793585F4F2AF02E
S11309C09E3F510568F092C0DCC05F3FECF3983E57
S11309D0DCF3869577956795B795F7959F5FC9F78B
S11309E0880F911D9695879597F90895E1E0660F14
S11309F0771F881FBB1F621773078407BA0720F08D
S1130A00621B730B840BBA0BEE1F88F7E0950895F5
S1130A1004D06894B111B5C0089598D088F09F5758
S1130A2090F0B92F9927B751A0F0D1F0660F771F36
S1130A30881F991F1AF0BA95C9F712C0B13081F016
S1130A409FD0B1E008959CC0672F782F8827B85FA6
S1130A5039F0B93FCCF3869577956795B395D9F777
S1130A603EF490958095709561957F4F8F4F9F4F81
S1130A700895E89409C097FB3EF49095809570958D
S1130A8061957F4F8F4F9F4F9923A9F0F92F96E9D6
S1130A90BB279395F695879577956795B795F1114B
S1130AA0F8CFFAF4BB0F11F460FF1BC06F5F7F4FE8
S1130AB08F4F9F4F16C0882311F096E911C07723FA
S1130AC021F09EE8872F762F05C0662371F096E803
S1130AD0862F70E060E02AF09A95660F771F881FD2
S1130AE0DAF7880F9695879597F9089597F99F6790
S1130AF080E870E060E008959FEF80EC08950024A2
S1130B000A941616170618060906089500240A946E
S1130B1012161306140605060895092E0394000CF4
S1130B2011F4882352F0BB0F40F4BF2B11F460FF83
S1130B3004C06F5F7F4F8F4F9F4F089557FD9058AC
S1130B40440F551F59F05F3F71F04795880F97FB8D
S1130B50991F61F09F3F79F0879508951216130647
S1130B601406551FF2CF4695F1DF08C01616170676
S1130B701806991FF1CF86957105610508940895AB
S1130B80E894BB2766277727CB0197F908950BD004
S1130B90C4CFB5DF28F0BADF18F0952309F0A6CF4B
S1130BA0ABCF1124EECFCADFA0F3959FD1F3950FFD
S1130BB050E0551F629FF001729FBB27F00DB11DDD
S1130BC0639FAA27F00DB11DAA1F649F6627B00D6D
S1130BD0A11D661F829F2227B00DA11D621F739F56
S1130BE0B00DA11D621F839FA00D611D221F749F64
S1130BF03327A00D611D231F849F600D211D822FAB
S1130C00762F6A2F11249F5750408AF0E1F08823F1
S1130C104AF0EE0FFF1FBB1F661F771F881F9150FE
S1130C205040A9F79E3F510570F060CFAACF5F3FB7
S1130C30ECF3983EDCF3869577956795B795F79531
S1130C40E7959F5FC1F7FE2B880F911D96958795B9
S1130C5097F9089597FB072E16F4009406D077FDB4
S1130C6008D00BD007FC05D03EF4909581959F4F9A
S1130C700895709561957F4F0895AA1BBB1B51E1A0
S1130C8007C0AA1FBB1FA617B70710F0A61BB70BF8
S1130C90881F991F5A95A9F780959095BC01CD019D
S1090CA00895F894FFCF53
S1130CA60000FFFFFFFFFFFF0000FFFFFFFFFFFF46
S10F0CB600FFFFFFFFFFFFFF3C004100B8
S9030000FC
