S018000046757365626F785F4669726D776172652E7372656394
S113000049C0000064C0000062C0000060C000007D
S11300105EC000005CC000005AC0000058C0000070
S113002056C000000BC4000052C0000050C00000C5
S1130030C9C100004CC000004AC0000048C0000014
S1130040C7C3000044C0000042C0000040C000001C
S11300503EC000003CC000003AC0000038C00000B0
S113006036C0000044C0000032C0000030C00000B0
S11300702EC000002CC000002AC0000028C00000D0
S113008026C0000024C0000022C0000020C00000E0
S11300901EC0000011241FBECFEFD0E1DEBFCDBFD4
S11300A011E0A0E0B1E0ECE3F9E000E00BBF02C036
S11300B007900D92AC30B107D9F721E0ACE0B1E084
S11300C001C01D92A733B207E1F772D235C498CFAD
S11300D080E480937C00EAE7F0E08CE88083808110
S11300E080648083089588EC80937A0008951F9239
S11300F00F920FB60F9211240BB60F922F933F93CA
S11301004F935F936F937F938F939F93AF93BF931B
S1130110EF93FF9380910C01E82FF0E02091780099
S113012030917900EE0FFF1FED5CFE4F3183208389
S11301308F5F80930C01823011F410920C01809136
S11301400C01806480937C00CEDFFF91EF91BF911E
S1130150AF919F918F917F916F915F914F913F915B
S11301602F910F900BBE0F900FBE0F901F901895FC
S1130170E82FF0E0EE0FFF1FED5CFE4F80819181D0
S11301800895883078F02091DD0090E0089730E001
S113019002C0359527958A95E2F781E020FF0DC0CE
S11301A080E008952091DC0030E002C03595279569
S11301B08A95E2F781E020FD80E008951092D8004E
S11301C040E029C080E1489F90011124822F88607B
S11301D08093ED001092EE001092EF001092F00068
S11301E01092F1001092F2001092F3001092F400B9
S11301F01092F5001092F6001092F70080E008C00B
S1130200982F922B98609093ED001092FA008F5FD4
S11302108830B0F34F5F4F30A8F21092E2008CE0C8
S11302208093E30086E38093E4001092DB00E8ED22
S1130230F0E080818260808308950F931F93CF93B1
S1130240DF93EC018B018C818295807F8093ED009C
S11302508C8197DF882371F18881998196958795A0
S113026096958795969587958093F30088818295D6
S1130270880F807E8093F2001092F10084E08093D6
S1130280F0008A819B81969587959695879596959A
S113029087958093F7008A818295880F807E80936A
S11302A0F6001092F5001092F40088EC8093EF00B1
S11302B01092EE0020E010C08C8130E1839FC001D9
S11302C01124822B88608093ED00F801E20FF11D68
S11302D08091FA0080832F5F283070F3DF91CF91F3
S11302E01F910F910895CF93DF93EC0120E010C08C
S11302F08C8130E1839FC0011124822B886080931C
S1130300ED00FB01E20FF11D80818093FA002F5F65
S1130310283070F38C818295807F8093ED008C81EE
S113032030DF882321F1EEEEF0E01082888199819C
S11303309695879596958795969587958093F300DE
S113034088818295880F807E8093F2001092F1005C
S11303501092F0001092F7001092F6001092F5003F
S11303601092F400108288E48093EF001082DF91F1
S1130370CF910895853608F084E6853048F02FE360
S1130380829FC001112464E670E0AFD26093000143
S1130390089584B1806484B983E6809380008AE1FF
S11303A08093810082E080936F008FE390E09093CC
S11303B089008093880088E190E090938B0080937B
S11303C08A0008951F920F920FB60F9211248F93F3
S11303D09F938091000190E090938B0080938A001A
S11303E09F918F910F900FBE0F901F901895AF9211
S11303F0BF92CF92DF92EF92FF920F931F93CF930E
S1130400DF9380B18170B82E8093180180B182701F
S1130410C82ED12CD594C794C092170180B1847092
S1130420E82EF12CF594E794F594E794E092160104
S113043000B1087010E01595079515950795159569
S11304400795009315018CB18170A82E8093140137
S1130450CCB1C270D0E0D595C795C0931301ACB1AF
S1130460A470B0E0B595A795B595A795A093120192
S1130470ECB1E870F0E0F595E795F595E795F5951D
S1130480E795E09311016CB1607170E07595679523
S11304907595679575956795759567956093100142
S11304A04CB1407250E055954795559547955595F3
S11304B04795559547955595479540930F012CB110
S11304C0207430E0022E232F000C221F330B000C6B
S11304D0221F331F20930E01FCB1FF1FFF27FF1FB4
S11304E0F0930D018C2D90E0880F991F8B29F12C2E
S11304F0EE0CFF1CEE0CFF1C8E299F2910E0000F50
S1130500111F000F111F000F111F802B912BB12CF5
S1130510AA0CBB1CAA0CBB1CAA0CBB1CAA0CBB1CA3
S11305208A299B29D0E0CC0FDD1FC295D295D07FBC
S1130530DC27C07FDC278C2B9D2BB0E00024B695F4
S1130540A7950794B695A7950794BA2FA02D8A2B43
S11305509B2BEE2EF12CF694FE2CEE24F794E794CC
S11305608E299F2970E0762F6627862B972B50E0E3
S1130570542F4427550F842B952B30E0322F2227FC
S1130580330F330F282B392B8F2F90E0982F882788
S1130590990F990F990F822B932BDF91CF911F9174
S11305A00F91FF90EF90DF90CF90BF90AF900895A0
S11305B0CF93DF93CDB7DEB76A970FB6F894DEBF5B
S11305C00FBECDBFE0D013DFF9DD82DD2ED1EDD03B
S11305D0E0DE1A8219821C821B821D8280E091E077
S11305E09F878E878FEF97E0998B888B1A8A7894F0
S11305F08091220190912301A0912401B0912501C1
S113060040911E0150911F016091200170912101C0
S11306108C019D01041B150B260B370B0B301105A8
S11306202105310508F493C080931E0190931F01A6
S1130630A0932001B093210180911A0190911B0194
S1130640A0911C01B0911D010196A11DB11D8093C3
S11306501A0190931B01A0931C01B0931D01C7DEE6
S11306609F708F3F9F4009F4D8D0C1DE9F708F3FA9
S11306709F4008F4D6D0BBDE8E83B9DE9F8307D1BA
S1130680888780E075DD898781E072DD8A871C8632
S11306901D86BE016A5F7F4FCE01019624DEBE0136
S11306A06D5E7F4FCE010E96C8DD8D898093190152
S11306B09EDE9F708F3F9F4028F4E0EBF0E0808146
S11306C0846080838091280190912901A0912A015E
S11306D0B0912B0180389E43A105B105E0F4E0916F
S11306E02601F0E0EF5FFE4F80818093B30080919C
S11306F027018F5F80932701853039F410922701F9
S1130700809126018F5F80932601809126018A3093
S113071011F4109226018091280190912901A09151
S11307202A01B0912B0180389E43A105B10578F0D0
S1130730E0EBF0E080818B7F80831092280110929F
S1130740290110922A0110922B0110922601809106
S11307501A0190911B01A0911C01B0911D018436D6
S11307609105A105B10508F443CF10921A01109226
S11307701B0110921C0110921D0125D060910001F3
S113078082E3F8DD35CF11B884B18D7F84B985B1AA
S1130790826085B985B78F7E85BF8DE384B917B82C
S11307A08CE68AB91DB810BA089584B5886084BDF2
S11307B084B5836084BDEEE6F0E08081826080834E
S11307C08AEF87BD089595B180E1892785B9089599
S11307D01F920F920FB60F9211248F939F93AF9392
S11307E0BF938091220190912301A0912401B091A3
S11307F025010196A11DB11D80932201909323012F
S1130800A0932401B0932501BF91AF919F918F9143
S11308100F900FBE0F901F90189585B1877F85B9F3
S1130820089585B1886085B90895E0EBF0E0808192
S11308308860808382E08093700008951F920F92F5
S11308400FB60F9211248F939F93AF93BF939BB1D5
S113085084E089278BB98091280190912901A09186
S11308602A01B0912B010196A11DB11D809328018D
S113087090932901A0932A01B0932B01BF91AF91CA
S11308809F918F910F900FBE0F901F90189520B1DC
S1130890622F61706093320190B19870292F30E01B
S11308A0359527952093310140B1407450E055951A
S11308B04795559547954093300180B110922F018B
S11308C080B110922E0180B110922D0180B110924E
S11308D02C0130E0220F331F842F90E0880F991FE2
S11308E0880F991F262B822B089597FB072E16F449
S11308F0009406D077FD08D00BD007FC05D03EF459
S1130900909581959F4F0895709561957F4F0895B7
S1130910AA1BBB1B51E107C0AA1FBB1FA617B70721
S113092010F0A61BB70B881F991F5A95A9F780953D
S10F09309095BC01CD010895F894FFCF10
S10F093C01201F1E1D1C1B1C1D1E1F0083
S9030000FC
